:020000040000FA
:1000000050080020E9010000090200000B02000076
:1000100000000000000000000000000000000000E0
:100020000000000000000000000000000D020000C1
:1000300000000000000000000F020000110200009C
:10004000130200001302000013020000130200005C
:10005000130200002D19000013020000130200001B
:10006000ED1F00007D2000001302000013020000BD
:10007000130200001302000013020000130200002C
:10008000130200001302000013020000130200001C
:10009000130200001302000013020000130200000C
:1000A00013020000130200001302000013020000FC
:1000B00013020000130200001302000013020000EC
:1000C00000F002F800F064F80CA030C808382418DA
:1000D0002D18A246671EAB4654465D46AC4201D180
:1000E00000F056F87E460F3E0FCCB646012633424E
:1000F00000D0FB1AA246AB4633431847342B00000E
:10010000542B0000103A02D378C878C1FAD85207AD
:1001100001D330C830C101D504680C6070470000BD
:100120000023002400250026103A01D378C1FBD813
:10013000520700D330C100D50B60704710B5662957
:1001400002D102F0B7FC10BD642902D100F0DCF846
:1001500010BD782902D100F00DF910BD632902D13C
:1001600000F0A3FF10BD732902D100F0A6FF10BD5F
:10017000002010BD1FB5C046C04600F0CBFF0400F4
:100180000020002102F028FCE0601FBD10B510BD6A
:1001900001F01CFB1146FFF7EDFF02F033F801F010
:1001A00034FB03B4FFF7F2FF03BC01F079FB00005E
:1001B00070B505460C46164602E00FCC0FC5103E42
:1001C000102EFAD2082E02D303CC03C5083E042E0B
:1001D00007D301CC01C5361F03E021782970641CC8
:1001E0006D1C761EF9D270BD0D480E4901600E4996
:1001F00001600E4901600E4A0E4911600021016044
:100200000D4880470D480047FEE7FEE7FEE7FEE7A2
:10021000FEE7FEE70A480B49094A0B4B704700000E
:100220000001005059000000160000008800000086
:1002300024000050A55A0000E51E0000C100000087
:100240005006002050080020500600200FB4054939
:1002500010B503AA029800F035FF10BC08BC04B02A
:1002600018470000D803002070B50446856900686F
:10027000C10601D5302600E02026C00707D070BD9A
:1002800062683046A1689047206A401C20626D1E5B
:10029000F6D570BD70B5044685690078C00707D1F2
:1002A00070BD6268A16820209047206A401C2062CF
:1002B0006D1EF6D570BD70B50C460546012A05D0F9
:1002C0002878800600D5EA69002302E0012305E0D2
:1002D0005B1C934202D2E05C0028F9D1A869E618C1
:1002E000C01AA861286AC01828622846FFF7BCFF18
:1002F00004E06A682078A968641C9047B442F8D387
:100300002846FFF7C7FF70BDF7B5002575291068AF
:10031000009914A611D0C046C046002802DA404217
:1003200011A608E0009909688A0701D50FA602E026
:10033000490704D50EA6012501E0C046C046009F2E
:100340000024243704E000F0D1FE30313955641C1C
:100350000028F8D12B4632462146009800F037FCA1
:10036000FEBD0000000000002D0000002B0000007A
:100370002000000070B504460D4621461068C046B6
:10038000C0462188090502D50F4A7A4402E00E4A88
:100390007A440E3223460021243305E00607360F47
:1003A000965D5E54491C00090028F7D1207800238F
:1003B000000705D5702D03D0002901D0113202238A
:1003C000204600F004FC70BDA6270000F3B50446EB
:1003D000002081B020622046E1688847002872D062
:1003E000252802D06268A1689AE0E16820460026CC
:1003F000884705460020E0610746A0612A2D0AD003
:10040000284601F0E1FE002827D0303DB800001951
:100410000090856119E00298BA00121902C8916132
:1004200002902046E1688847012F054617D1E06910
:1004300000281FDA202086431CE000980A218069EA
:10044000484300994019303888612046E168884760
:10045000054601F0B9FE0028EFD1012F0AD02E2D5C
:1004600008D12046E16888470546202006437F1CC6
:10047000022FC3DBA069002803DA4042A0610120FB
:100480000643F00701D0102086436C2D0AD0682D5A
:1004900008D04C2D3CD06A2D38D0742D38D07A2D10
:1004A00036D016E0E1682F4620468847B842054618
:1004B0000AD16C2F2AD001208002E1680643204631
:1004C0008847054605E02FE06C2F1DD0FF20013046
:1004D0000643002D28D028464138192803D801208A
:1004E000C00206432035204626602946029A164659
:1004F000FFF724FE002810D001280BD0F61DF008CD
:10050000C0000830029066E74020E1E78020D4E791
:100510000020D2E7361D02965DE762682846A16892
:100520009047206A401C55E7206AFEBD002203095F
:100530008B422CD3030A8B4211D300239C464EE0FE
:1005400003460B433CD4002243088B4231D30309BA
:100550008B421CD3030A8B4201D394463FE0C3096C
:100560008B4201D3CB01C01A524183098B4201D384
:100570008B01C01A524143098B4201D34B01C01A6F
:10058000524103098B4201D30B01C01A5241C308E7
:100590008B4201D3CB00C01A524183088B4201D356
:1005A0008B00C01A524143088B4201D34B00C01A42
:1005B0005241411A00D201465241104670475DE057
:1005C000CA0F00D04942031000D3404253400022DA
:1005D0009C4603098B422DD3030A8B4212D3FC2283
:1005E000890112BA030A8B420CD3890192118B4202
:1005F00008D3890192118B4204D389013AD0921118
:1006000000E08909C3098B4201D3CB01C01A5241D2
:1006100083098B4201D38B01C01A524143098B429B
:1006200001D34B01C01A524103098B4201D30B0184
:10063000C01A5241C3088B4201D3CB00C01A5241A9
:1006400083088B4201D38B00C01A5241D9D2430890
:100650008B4201D34B00C01A5241411A00D20146CD
:10066000634652415B10104601D34042002B00D537
:100670004942704763465B1000D3404201B50020F9
:10068000C046C04602BD7047704770470246C80F5B
:10069000C00781434B0030B54B405B009B0D20D021
:1006A0001923DB06C91801231B05994220DB03240B
:1006B000A40704251346AB400BD3002B04D1EB0653
:1006C00013409B001B1904D4012464070023121952
:1006D0005941FF231B0599420BD2C9000143500F1A
:1006E00009E0CB0204D501430803024305D00548C5
:1006F00030BDFF21C905084330BD08460721090563
:10070000884330BD0000C07F1F22030C02D10F229E
:10071000000402D0030E03D004E00020014670471D
:10072000083A0002030F01D1121F0001830F01D10B
:10073000921E8000002801DB521E40001205511855
:100740004205C012411810467047C10FC90700D0BA
:100750004042012292071143D6E701218907D3E7DE
:10076000F0B5904C0D092646AC46AE430D465D40B3
:1007700087B0002E7ED01E092746B743FAD06746C1
:100780002740ED0F3D43264075D024012142FBD088
:100790007419FF25AD04641B0494CC02D902012313
:1007A0001B05C90A1943E40A1C430F012401030F66
:1007B000110F1C430F430501A10B88032D091601DE
:1007C0008443A80B82039543BB0B9A0397433609D6
:1007D000BC46B20B9703BE430746574303972F46C9
:1007E00077430296BE46029F4619D71906967E4366
:1007F0000597039FF71B7646BE1B77463F01009780
:100800000196039FB60BF619B646019E009FB604EB
:10081000BF1902D37646761CB64676467600002F80
:1008200001D001273E4367467D43AE46029F2546E1
:100830007D4300956D00AE1975466D00AF19654694
:100840005D19069E03956E437546751BAE460D19E0
:10085000059E02956E43009D5843761B75462D1AE2
:100860004A439646B21A00920195FA0606D07D09CF
:10087000012201E076E072E0154300E07D09020A02
:100880000006002745197A417646300A3606761961
:100890005041019A950D9202961945410098820D9A
:1008A000800280196A41594363465C43039D029B61
:1008B0006B435B1A1E1BB30EB601B6187B410A0BC5
:1008C000090589195A41230A240624184B418B42F1
:1008D00000D2521C01204002824203D3152102267D
:1008E000F64302E014210326F6432020451AAA40CD
:1008F0001F46AF40CB402046C8400499134309141B
:10090000711809055A1804993843C9075140AC4079
:1009100009D001239C4006D30023401C5941002CE0
:1009200001D140084000204B002A03DB1A4201D0CD
:100930008B4312D1012204989206904207DB0520D6
:100940004007091819480143C012414004E0032040
:1009500040070818C10FC907002007B0F0BD0020EC
:10096000E907FAE706180C464C4111487642A041C7
:1009700014D394181A465A410D48644290410DD33D
:10098000012049004005814208D35900814205D326
:10099000E90F054AC90700201143DEE70020054999
:1009A000DBE700000000FF070000F07FFFFFFF7F94
:1009B0000000E0FF0000F87F0121C9050123411874
:1009C00042001B06D3185B0E0BD0C1100722D206C3
:1009D0008918400752428A1802D50922120789183D
:1009E0007047090208D50146002A03D0C10FC90784
:1009F0000020704710467047420202D00020034991
:100A00007047072109050143F4E700000000F87F63
:100A100070B5FF242404C609FF25264001352E4366
:100A2000C209CB090546224023404D40002A6BD025
:100A3000002B69D0A24267D0A34265D0002D00DA16
:100A400032460124E4052143204309020002090A39
:100A5000D21A000A4B0C7F24E31A434C7C44E35C1B
:100A60007D242404121914145B00A218884201D3B7
:100A7000521C00E0400049420C465C4324115C4398
:100A8000DB016415E318040A5C43C502200D0C4623
:100A900044436419250A5D432303EC0C0D4665436A
:100AA00000030019EB184C42A34201D35B18401C11
:100AB000D4052018002B07D05B00C91804D3401CB4
:100AC000002901D1400840003F2189048A4209D30E
:100AD000002A08DC1106090F04D003214907401839
:100AE000C00FC00770BD01224100120689187F2285
:100AF00052069142F6D205214907401801D59010BF
:100B000070BDFF20C00570BD002D00DA3246174EC3
:100B1000A24207D2A34205D21802000E17D0E80F56
:100B2000C00770BDFF2443002406A34216D8490025
:100B3000A14213D8A34201D1A1420FD0A14201D1B9
:100B4000002101E041004908D005084370BD1002B2
:100B5000000E03D0FF200243D00570BD304670BDAB
:100B600048404140484053E7FC2000000000C07F5F
:100B70001F22030C02D10F2200041CD0030E01D14E
:100B8000083A0002030F01D1121F0001830F01D1A7
:100B9000921E8000002801DB521E4000D205511831
:100BA000021251181922904004D3491C002801D187
:100BB0004908490008467047C10FC90700D04042A4
:100BC000012292071143D3E701218907D0E7FFB53E
:100BD00004460D4681B0243000902168880604D573
:100BE0001022E0699143216000E00120A84201DD6C
:100BF000471B00E000270498A1697A191018081A09
:100C0000A0612078C00602D42046FFF72DFB002605
:100C100008E003986268A168805D9047206A401CE4
:100C2000761C206204988642F3DB2078C0060AD541
:100C30002046FFF719FB06E06268A1683020904764
:100C4000206A401C206238467F1E0028F4DC07E042
:100C500000986268A168405D9047206A401C20624D
:100C600028466D1E0028F3DC2046FFF713FB207892
:100C7000000602D5022005B0F0BD0120FBE7000010
:100C80007047FFB50C461E468FB003CA0890099105
:100C90004F007D0D00D16D1E002108460020C0468A
:100CA0000321099A89050840002A03DA8200801886
:100CB00040080840800D01280A9002DD0020C04352
:100CC0000A90089807430DD0EF48F0492818484388
:100CD0000714189800281DD07542291E1DDD0A989A
:100CE00042421BE01898012802D00020302104E085
:100CF0000020F24305E02154401CB042FBDB3046AB
:100D00000022189B002121540F998B600A604860D3
:100D100013B0F0BDBD1B6D1CDFE70A9A002900DA95
:100D200069420BA800F094FA0BA803AB07C807C3ED
:100D30000899099800F0F2FA01910146D44802920C
:100D40000918002D00910ADDD14903980A9A4942F9
:100D5000401803A90390684600F005FD07E00399D9
:100D60000A9A081803A90390684600F0D2FC009084
:100D700000040292000C019103D00020C0434108FE
:100D800000E01046189A002A03D00022009215466F
:100D90001EE0751E05D400F0C1F9303262556D1E9B
:100DA000F9D501220843079602D000227F1C04E0F7
:100DB0002078302801D100227F1E002A069788D093
:100DC0001EE0112D07DA00F0A9F9303262556D1CD2
:100DD00002460A43F5D108430FD10021681E05E001
:100DE000235C625C6354491C2254401E8142F7DB41
:100DF000A81B401E0795069002E0009800280AD024
:100E0000079A18990020A0540F98079B069A4360F0
:100E1000026081607CE711260020189059E7D21DFE
:100E2000F0B50D460446D10893B0C90003C90C9033
:100E30000D9101F0B3F902460D98C00F01D02D209D
:100E400007E02068810701D52B2002E04007C00F92
:100E50004001032A0F9001D0072A05DB03462946EB
:100E6000204600F0B1F90DE12078800601D5E76950
:100E700000E006272846652D04D0662814D0672D8B
:100E800069D12DE00020112F009001DB112300E03B
:100E90007B1C0CAA03A910A8FFF7F3FE11990026EA
:100EA00010987D1C0E9142E001203B460CAAC00721
:100EB0000B900120009003A910A8FFF7E2FE119DFE
:100EC00012981099002600280E9501D1781C0D1853
:100ED000781B02D44642761E7D1CE81B00903AE047
:100EE000012F00DA01270020112F009001DD1123CE
:100EF00000E03B460CAA03A910A8FFF7C2FE119917
:100F00003D46109800260E91217809070BD40E99C2
:100F1000A94200DA0D4603A9012D04DD4A19203A41
:100F2000D27F302A06D0B84201DA011D04DA01214D
:100F300000910FE06D1EEFE7002802DC86192D1AE4
:100F400003E0411CA94200DD0D46801B401C0090BF
:100F50000120C0070B902078000705D40098A84214
:100F600002DB0020C043009069460020C8720B9845
:100F7000012102AF0337C907884225D00220109013
:100F80002B2011900B9800280BDA40420B902D205B
:100F9000119006E00B9800F0A9F830317F1E0B90FD
:100FA00039701099481E00291090F3DC0B98002826
:100FB000F0D111987F1E38702088000501D545209A
:100FC00000E065207F1E387001A8C01BC01D0B907B
:100FD0000F98002800D0012041190098C017091867
:100FE0000B980818A169081A401EA0612078C00655
:100FF00002D42046FFF738F90F98002805D0626820
:10100000A1689047206A401C20622078C00624D541
:101010002046FFF729F920E0002E07DB0E98B042AA
:1010200004DD03A86268805DA16802E06268A168CF
:1010300030209047206A761C401C20620098401E99
:1010400000900AD100F066F8C06862680168405CF0
:10105000A1689047206A401C206228466D1E002827
:10106000DADC07E062683878A1687F1C9047206A64
:10107000401C20620B99481E00290B90F2DC204690
:10108000FFF708F9022043E601FCFFFF104D0000C6
:10109000E1DFFFFF10B54369002B02D0C046C04618
:1010A00001E0FFF708F9012010BD12780146243154
:1010B0000A7000224A700122ECE711680022D24334
:1010C000E8E70000084B70B50D467B4400F069F876
:1010D0000446284601F085F8002802D00020C043CD
:1010E00070BD204670BD00001B1100000146800845
:1010F000081A02091018020A1018020C1018C00869
:10110000820012185200891A01E00A39401C0A298B
:10111000FBD2704700487047100600200B4670B5A0
:10112000024689078008084319469D08141AA941F8
:1011300025090807054308092C194841250A010615
:101140000D43010A2C194141200C0D0428430D0CBC
:1011500000194D41002140194D41C008690708435D
:10116000E908840F8D002543840024184D4124197B
:101170006D41121BAB4107E00925ED432C115219BB
:1011800063410024401C61411C460A250026551B72
:10119000B441F1D270BD000001694A1C02610878B7
:1011A000704700B58FB00291002105910549019368
:1011B00079440391114604906846FFF707F90FB090
:1011C00000BD0000E5FFFFFFF8B51F460446012300
:1011D0000068DB02032601461840072A05DB0028C9
:1011E00001D017A506E017A504E0002801D016A538
:1011F00000E016A5102081432160A069C01E002FC9
:10120000A06101D0401EA0612046FFF72DF8002FFD
:1012100009D038466268A1689047206A401C206265
:10122000C01C206206E0206AFAE762682878A1689C
:101230006D1C9047761EF8D22046FFF72BF8F8BDBC
:101240004E414E006E616E00494E4600696E66006A
:10125000F7B516468AB0304878446C4603467C336E
:10126000C06F5A689B680DC42B4B7B446E330833A8
:1012700003AC0DCB0DC43720C001081837211B303B
:10128000FFF75EF905460C46803D1B3C02D56442E3
:10129000012000E00020002709900FE0E0070BD0BC
:1012A0000C201D497843794432464E39411868462E
:1012B00000F02FFA6B4607C364107F1C002CEDD1A1
:1012C000154F7F442E3F16E0E80712D02001C019C9
:1012D00001460EC9069108930792C068F04201D1F9
:1012E00098190890324606A903A800F012FA03AB39
:1012F00007C36D10641C002DE6D13246694609987B
:10130000002803A802D000F02EFA01E000F001FA54
:101310000A9B07C30DB0F0BD401900000346400012
:101320000A4610B5400D0BD00121C9070F24A402B5
:1013300000191C0364082143540D2143D20207E025
:1013400000210120F2E7D40F490021435200401E42
:101350000029F8DADB0FDB07184310BDFFB50D4697
:10136000144685B04868516800F000FF0091019074
:10137000A868A16800F0FAFE02910390A86861686D
:1013800000F0F4FE029A12188242029201D2012069
:1013900000E00020019A0B18D2180028019202D018
:1013A0008A4202D903E08A4201D2012000E00020F3
:1013B0000099081800906868A16800F0D7FE029AAA
:1013C00012188242029201D2012000E00020019A0C
:1013D0000B18D2180028019202D08A4202D903E0E9
:1013E0008A4201D2012000E00020009908180090F4
:1013F0002868216840004900400849084018EE4923
:10140000471814E001994000C90F08430090019863
:1014100002994000C90F08430190029803994000C7
:10142000C90F08430290039840007F1E0390009864
:101430000028E7DA0898002801D0E04E00E00026F6
:10144000B74228DAF71BF806C00E15D0029B202100
:10145000091A039A8B401A430392029A019BC240D5
:101460008B401A430292019A009BC2408B40009924
:101470001A430192C14000917A110BD06B460320B0
:10148000811A01D5002101E0890059588700401ECA
:10149000D951F5D5374603980299002800D001208C
:1014A000014308980291002808460CD0002800D07B
:1014B00001200199019A490508430121D20AC90274
:1014C000D202019200E001210E9B0122D207012BE2
:1014D00002D0002B03D013E0002807D116E0904281
:1014E00004D890420CD1019B0B4209D0019B5918A2
:1014F000019105D10099491C009101D17F1C0092F6
:10150000002803D0102108460020C0462868216822
:10151000019B009A4840C10F0598C90739430EC086
:1015200009B0F0BDFFB587B0099A089808995368CB
:10153000926840688968964600220393174694464D
:10154000089A12685300099A5B0812685200520800
:101550009A1A9B4BD4180A9A002A01D0352200E02F
:10156000402206920022012315460492DB070593D0
:1015700024E0002D05D175460346039E4D1BB34163
:1015800009D375466646039B491B049D9841059BFC
:101590007519AC465F4163463B4308D0059B049EEA
:1015A000DD0776082E435B080496059301E0641E70
:1015B000521EC50FED0749184041521C069B9A4226
:1015C000D7DB002D04D17546039A6B1A824101D2F4
:1015D00003200CE0039A0B466B404240134301D1B9
:1015E000022004E0014301D0012000E00020614618
:1015F00001910021009702910A99002905D06146C6
:10160000400201436D4B019102E0800700230290EC
:101610009C423ADA1A1BD006C00E15D0029D20213A
:10162000019C091AC5408C402543029C8C4000D087
:1016300001242543019C02953D46C4408D40394616
:101640002C43C1400194009154111DD06D460221DC
:10165000002202290CD10320001B07E0002804DB34
:101660008600AE59002E00D00122401C0328F5DB75
:10167000081B02D588002A5004E080002858104337
:101680008A00A850491EE3D51C460A9800280298F3
:101690000CD0002800D001200199019A4905084387
:1016A0000121D20AC902D202019200E00121109B5D
:1016B0000122D207012B02D0002B03D013E0002817
:1016C00007D116E0904204D890420CD1019B0B4206
:1016D00009D0019B5918019105D10099491C00912D
:1016E00001D1641C0092002803D01021084600207C
:1016F000C04608980999019A00680968484000990D
:10170000C30F0798DB0723430360826041600BB07F
:10171000F0BD1FB5002300920A46014601A8FFF75D
:101720001DFE01A807C804B010BD1FB5012300921B
:101730000A46014601A8FFF711FE01A80F2407C8B9
:10174000A402C30F4000DB074008001B002900DB98
:101750000020490000054908CC0A204349051843E8
:10176000D20A1143DFE71FB5002300920A46014663
:1017700001A8FFF7D7FE01A807C8D4E71FB50123CA
:1017800000920A46014601A8FFF7CCFE01A80F24EB
:1017900007C8A402C30F4000DB074008001B002954
:1017A00000DB0020490000054908CC0A2043490518
:1017B0001843D20A1143B6E702C0FFFF013C000004
:1017C000FF3F000000487047F00500207546FFF716
:1017D000F9FFAE46050069465346C008C00085467D
:1017E00018B020B5FEF716FD60BC00274908B646C4
:1017F0000026C0C5C0C5C0C5C0C5C0C5C0C5C0C520
:10180000C0C5403D49008D4670470446C046C046AD
:101810002046FEF7C6FC0000024670B50A43920758
:101820002AD11E4DEE0104C808C9541B944334400C
:1018300017D0D0B2D9B2401A2106014310D190B2CC
:1018400099B2401A210401430AD110021902000A78
:10185000090A401A2102014302D1100E190E401A42
:1018600070BD9A42DFD010BA19BA884201D901205E
:1018700070BD0020C04370BD02780B78401C491C2D
:10188000002A09D09A4207D102780B78401C491CE3
:10189000002A01D09A42EFD0D01A70BD0101010197
:1018A00001491820ABBEFEE7260002007047000089
:1018B00008B511A0006800901048016A00130142A9
:1018C00001D0002008BD080301D50D4800E00D48F7
:1018D0008A03F7D40A04920F6B469B5CCA058904FD
:1018E000D20DC90E921C891C800859435043FEF743
:1018F0001DFE800008BD000001020204000200502D
:1019000000805101001BB70010B504460549064B85
:1019100003E00A46491E002A03DDDA6820469043A8
:10192000F7D110BD90D0030000020050F8B5BB48BD
:1019300000F051FCBA4D286A4B27C606FF207F21D4
:1019400091303F01C9051C22B64B0024002E6DDAF0
:1019500010262E626D693543B14E7561B24D6E7AB7
:10196000002E56D0AE7A532E02D06C722C7257E0F5
:101970002E78002E0AD0012E11D0022E19D0032E5F
:1019800023D0042E2CD0052E32D03DE06C61EC61CA
:101990000421A9612962A863EF63A44807E06C6190
:1019A000EC610421A9612962A863EF63A048286162
:1019B00025E005206861E8610F20A8612862AF205A
:1019C000C000A8639B48E86318E005206861E861EF
:1019D000AA612A62AF20C000A863EB639648E6E7DD
:1019E0000A206861E861AA612A624B20400103E095
:1019F0006C61EC61AA612A62A863EB632961AA6940
:101A000069698EA0FEF722FC297895A0FEF71EFCDE
:101A100006E0E879401CC0B2E871032800D3EC71FD
:101A20002878401C6FE0E97994A084E02E6AB6061D
:101A300070D57B4D20262E626D693543784E7561D9
:101A4000794D6E7A002E55D0AE7A532E02D06C723C
:101A50002C7256E02E78002E0BD0012E12D00627C5
:101A6000022E19D0032E22D0042E2AD0052E30D0DB
:101A70003BE06C61EC610521A9612962A863EF6319
:101A80006A4807E06C61EC610521A9612962A863DD
:101A9000EF636748286123E06F61EF611020A86160
:101AA0002862AF20C000A8636248E86317E06F6156
:101AB000EF61AA612A62AF20C000A863EB635E48B1
:101AC000E8E70B206861E861AA612A624B204001C7
:101AD00003E06C61EC61AA612A62A863EB6329618F
:101AE000AA69696955A0FEF7B1FB29785CA0FEF7E9
:101AF000ADFB06E0E879401CC0B2E871032800D3D2
:101B0000EC712878401EC0B2287006288BD32C7048
:101B100089E7FFE742484030016A0127C9070029E9
:101B20000CD007624169394341613F484179491C02
:101B3000C9B2417157A0FEF789FBF8BD016A490798
:101B40004FD50421016242690A434261364D687AE9
:101B50002E460C36002811D00128EED10020345436
:101B6000401CC0B20328FAD3AC72EC714F496C72BE
:101B70003C2048604EA0FEF769FBF8BD297AEA795F
:101B800072544EA0FEF762FBEC712C70287A401C58
:101B9000C0B228720328F0D32C723078002804D009
:101BA000012804D002280CD003E0442000E04120AA
:101BB000A8727078002806D0012806D002280AD022
:101BC00005E05320F4E7652000E05020E870B0788D
:101BD000002802D002E00C20F8E76F72697A40A07A
:101BE000A9E7296A09060FD580202862696901439F
:101BF00069610D498879401CC0B28871022800D9FA
:101C00008C7189793EA096E7054940390A6A0A62D3
:101C1000296A2962016A0162F8BD000020A107005B
:101C2000C0400050701700000C000020E7FB81400E
:101C3000BC745340480D0000C633C83E0A20677587
:101C4000635430496E6465783D25642C677563691B
:101C50006E6465785F72616E67653D2564200A0079
:101C60000A2073656C6563745F667265715F72618B
:101C70006E6765202564200A000000000A20736555
:101C80006C6563745F636F6D6D616E6420256420A5
:101C90000A0000000A0A636F756E746572204020A6
:101CA0006C656674202564200A000000DC030020B7
:101CB0000A20636C656172200A0000000A20696EC8
:101CC000746572727570745F656E7465725F636F50
:101CD0006D6D616E645B25645D202564200A0000E3
:101CE0000A2073656C6563745F636F6D6D616E640C
:101CF0005F73756363657373203D202564200A005C
:101D00000A0A636F756E7465722040207269676895
:101D100074202564200A000010B58369140E8C40DD
:101D200023438361C3691202120A8A401343C361C9
:101D300010BDF0B5002301273C469C400C4208D062
:101D400005685C000326A640B5431646A640354309
:101D500005605B1C082BEFD3F0BD0000064B002094
:101D6000064A187111690648014018466A30007821
:101D70000843D864906070470C0000204040005039
:101D8000F0FF000010B5064A1169074C054B2140D1
:101D90001C466A34205C0843D864906010BD000083
:101DA000404000500C000020F0FF000010B5144C23
:101DB00020680421084320601020FFF7A5FD0720BC
:101DC0002061206AE101084320622068092108435C
:101DD00020600C4820620D20FFF796FD1A2020613C
:101DE0000948A0600948606100F034F80520000748
:101DF000C16B074A1140C1630649C16310BD0000B1
:101E000000020050174200003C00010000200701C2
:101E1000C4C4FFFF3B080000010E8A00052109072A
:101E200051188B680122824013438B60886890436D
:101E30008860704706498A691202FCD408600A2843
:101E400004D188690002FCD40D20086070470000AE
:101E500000000540F8B51C4D286944071BA0006828
:101E60000090296A640F2813014201D0002016E077
:101E7000080301D5164800E016488A030FD40A0467
:101E8000920F6B469B5CCA058904D20DC90E921C49
:101E9000891C800859435043FEF748FB80000E4ED2
:101EA000022CB06002D00D49A0000858A9690907AA
:101EB000090F491CFEF73AFB094930604A108018A7
:101EC000FEF734FB7060F8BD00020050010202040E
:101ED00000805101001BB70000000020C42A000050
:101EE00040420F0070470021016041617047016866
:101EF0000122120691430160704710B54369162410
:101F0000A3430B43134308210B43436110BD4269B4
:101F1000520852000A43426101680122120611432D
:101F20000160704710B588B0044620221249684607
:101F3000FEF73EF9114912488C4202D14069000A6D
:101F40000DE00E4920318C4202D14069000B06E0C1
:101F50000C4940698C4201D1000C00E0000D4007A3
:101F6000400F022804D080006946085808B010BD10
:101F700005480068FAE70000142B0000000001404B
:101F8000000200500000114000000020F7B5174685
:101F90000646FFF7C7FF044600254008B84201D2B5
:101FA000022017E0012189068C4202D30725E408AC
:101FB0000CE0012149068C4202D30325A40805E068
:101FC000012109068C4201D30125044639462046E9
:101FD000FEF7ACFA01992943316070606D1C6843CB
:101FE00001462046FEF7A2FAFEBD000070B51F4E66
:101FF000B068C007C00F37D00120B0601C4B5A6DCD
:10200000521C5A65D87A542804D1002A02D01949A2
:10201000632048601649987A096DFF25164C6D1AA1
:1020200044281BD0412819D053281DD1802901D321
:10203000A16001E08020A060322A14D958699A6911
:10204000904202D25869401C58615869084A800081
:102050009C32105870600020586504E0A560532839
:1020600001D0412800D11D6570BD00000000014075
:102070000C000020DC0300200040005070B5114827
:10208000816901291DD110490A6BD2430A630121DC
:1020900081610E4A5168491C516003690C4CA16D65
:1020A00016468D002036AD19491CA1652B6051687C
:1020B000C90702D00022102101E000221146FFF7DB
:1020C0001CFF70BD2000014000420050DC030020D6
:1020D0000C00002010B50448FFF79EFEE1214902E4
:1020E000024800F005F810BD100000040000054093
:1020F000F0B51A4B0D4604460FCB85B06E460FC6A1
:1021000017484069810103208E0F00212163E060A0
:10211000A06814490840A0606F46012E02D1FFF765
:10212000C7FB0190002D16D0B0003E58680830184B
:102130002946FEF7FBF90C49801E884207D9E800C2
:1021400030182946FEF7F2F90009801E02E003214B
:1021500009070843606205B0F0BD0000E42A0000F2
:10216000000200500FFFF0FFFFFF0000F8B5040C65
:102170008BB2264682B25E43104658430D0C370C94
:10218000360400218019164679416E43370C360417
:102190008019264679416E438919F8BD4900CA0263
:1021A000104300D004204A0D01D001221043054AFB
:1021B000490D914201D102210843012800D1052097
:1021C00070470000FF07000030380A2801D20120C4
:1021D000704700207047002100E0491C8142FCDB71
:1021E00070470020C043704700B50346FFF722FE4A
:1021F000184600BD02480121416301637047000099
:102200000042005008B5FF20FA4D9130A863FA480B
:10221000E86359201621F94E882202E030603160CF
:1022200032603368012BF9D1FFF7C0FD0024346020
:10223000FFF750FFAC70F2A0FEF708F8F2A0FEF72F
:1022400005F8FF4E012211463046FFF772FD0122CC
:1022500002213046FFF76DFD012204213046FFF7D1
:1022600068FD012208213046FFF763FD012210219D
:102270003046FFF75EFD012220213046FFF759FD71
:10228000012240213046FFF754FD012280213046D3
:10229000FFF74FFDEA4F0122403711463846FFF75E
:1022A00048FD012202213846FFF743FD01220421A7
:1022B0003846FFF73EFD012208213846FFF739FD79
:1022C000012210213846FFF734FD01222021384633
:1022D000FFF72FFD012240213846FFF72AFD01229A
:1022E00080213846FFF725FDD64F002202213846CF
:1022F000FFF71FFDD348002208214038FFF719FDE2
:10230000CF48012211468030FFF713FDCC4801224F
:1023100002218030FFF70DFDC948012204218030E1
:10232000FFF707FDC648012208218030FFF701FDB5
:10233000C348012210218030FFF7FBFCC048012276
:1023400020218030FFF7F5FCBD480122402180307C
:10235000FFF7EFFCBA48012280218030FFF7E9FC4B
:10236000012208213846FFF7E4FC012210213846FB
:10237000FFF7DFFC012220213846FFF7DAFC0122BB
:1023800040213846FFF7D5FC012280213846FFF76F
:10239000D0FCAC48002210214038FFF7CAFCA94805
:1023A000012204214038FFF7B7FCA6480022202173
:1023B0004038FFF7BEFCA348012205214038FFF753
:1023C000ABFC002201213846FFF7B3FC01220021BB
:1023D0003846FFF7A1FC002204213846FFF7A9FC8C
:1023E000012202213846FFF797FC964800228021FF
:1023F0004038FFF79EFC9348012207214038FFF741
:102400008BFC91482021016090488463C463FFF7EE
:10241000F1FEFFF7A3FC00272C6400F0A3FA296C5F
:102420007F1C40182864102FF7DB27466C61686911
:10243000810070489C304158854841600521C9069B
:1024400001600168090A0902016081157E486C6516
:10245000016080A0FDF7FAFE2C65B460784840303A
:1024600084607E48FFF7B7FE624DA96B7C4C204626
:10247000FEF75CF82866E96B06462046FEF756F83C
:102480002A467432E86516605060687A0128E8D1FF
:10249000E8786F652865A87A532823D00220686100
:1024A0006869810053489C3041586948416001681F
:1024B00082031143016065482F7101218163C1636B
:1024C000684C2046FFF787FE2046FFF784FE204633
:1024D000FFF781FEA97A532906D044297ED04129ED
:1024E000FCD0E3E16F61DBE75FA0FDF7AFFEE978C9
:1024F00062A0FDF7ABFE6869A9698842FBD36869F1
:10250000A969884203D1E8696861286AA861504ACC
:102510001068930398431060524C2046FFF75BFE0F
:102520002046FFF758FE2046FFF755FE2046FFF7EE
:1025300052FE2046FFF74FFE574C00208100401C02
:1025400067507D28FADB2B485421C1725348164648
:10255000506010680907084310603D4D0321203585
:102560000122C9062846FFF711FD306A000A000261
:102570000A3030624A48706200212846FFF7C7FCE3
:1025800068694021084368612846FFF7B0FC0022D3
:1025900010212846FFF7B1FC6869202108436861D3
:1025A0003D481038476029686806814329603A48E9
:1025B000203847600F498F6529686A0611432960F2
:1025C0000125214952150A6020494D634F634F632D
:1025D00041683C29FCD93068012200E015E19207EE
:1025E000904330601A482030016891430160FFF742
:1025F0007AFC57E00C00002070170000000100502A
:1026000031313131310A00002B2D2D2D2D2D2D2D65
:102610002D2D2D2D2D2D2D2D2D2D2D2D2D2D2D2DEA
:102620002D2D2D2D2D2D2D2D2D2D2D2D2D2D2D2DDA
:102630002D2D2D2D2D2D2D2D2D2D2B0A0A00000099
:10264000004000500041005000E100E00042005016
:1026500000000140323232320A00000080F0FA02FB
:10266000DC5B450050C300000A2073656C65637431
:102670005F747970653D2563200A00000A20677544
:10268000634F7574707574566F6C746167655065CF
:10269000616B3D2578200A00FC030020804F12006A
:1026A000FFFF00008748456347634563864E00216E
:1026B000022032467432776413685268834C850076
:1026C00064599C4205D2944203D9756C6419491C23
:1026D0007464401C7C28F1DB002903DD706CFDF77D
:1026E00025FF7064FFF786FD00253079FFF74AFB70
:1026F000774A1046FFF76FFD1046FFF76CFD002488
:10270000B76400F02FF9B16C641C4018B064102C51
:10271000F7DB00096F49B064884205D3317900299D
:1027200002D0491E317101256B49884205D83079A4
:10273000052802D2401C3071D6E7002DD4D167485D
:10274000716CFDF7F3FEFEF73FFA044630637F201D
:102750002146C005FEF75CF9614900F053F9B0620B
:102760003069FEF729F9009105462146084600F038
:1027700049F9FEF721F95B4A5B4BFDF7F1FF2A4669
:10278000009BFDF7EDFFFDF781FFF062B06CFDF7F8
:10279000E4FF0022554BFDF7E3FFFDF777FF3179AA
:1027A0008A00494984318958FEF732F95049FEF7C9
:1027B0002FF97063FEF700F902460B464DA0FDF7B6
:1027C00045FD7763B07900280DD0012814D0B06A98
:1027D000FEF7F2F80B463C49024664314CA0FDF787
:1027E00035FD376362E0F06AFEF7E6F80B463649DE
:1027F00002467C314BA0F2E7306BFEF7DDF80B466A
:102800003149024624314CA0E9E74F48FDF71EFD4F
:102810004D48E9781430FDF719FDFFF7EBFC002671
:102820002879FFF7AFFA2A4A1046FFF7D4FC104682
:10283000FFF7D1FC00242F6400F094F8296C641C8D
:1028400040182864102CF7DB0009224928648842CC
:1028500005D32979002902D0491E297101261E4974
:10286000884205D82879052802D2401C2871D6E76D
:10287000002ED4D1286CFDF770FF00221B4BFDF712
:102880006FFFFDF703FF29798A000F4984318958CA
:10289000FEF7BEF81649FEF7BBF82863FEF78CF882
:1028A00002460B4629A0FDF7D1FC2F63FFF756FA2D
:1028B00004488763C7632A48016882039143016023
:1028C000CFE50000004200500C000020FC03002077
:1028D00050C3000090E2000010270000DC5B4500C0
:1028E00000247449FCA9F1D24D62503F000014400D
:1028F00000FF7F470A2054656D70657274757265BC
:102900005F76616C7565203D202566200A00000019
:102910000A202573202531302E3166207553200A78
:10292000000000000A202573202531302E326C660D
:102930002075450A000000000A202573202531304B
:102940002E316620487A0A00682600000A20736546
:102950006E6F725F76616C75653D202566200A009A
:102960000000014070B500221A4C15466263134600
:10297000012625630F20FFF72EFC26630D20FFF7AD
:102980002AFC5B1C052BF4DB1249002080312563F7
:102990004B68002B00D0521C26635200401C1028AC
:1029A000F5DB66632563256326632663256325635C
:1029B00026632663256325632663266325632563D3
:1029C00026632663256325632663266366631046B4
:1029D00070BD00000042005010B500290AD00878F0
:1029E000002807D005487844FEF716FF002801D0DC
:1029F000002010BD0248784410BD00006A020000AB
:102A00006202000070B5420064414B005C41120E4E
:102A100039D01B0E38D0FF2A3CD0FF2B3AD04002D1
:102A20004902400A490A060045184E43000A090AAD
:102A3000D2184843ED017F3A0104731A4019190C6A
:102A40004318990F04D001215B0849075B1A521CF7
:102A5000D80904D3401CF50301D19D0607D0FF2AF5
:102A600008D2D50506D0E4072043401970BD0125E2
:102A7000A843F4E7002A01DCE00770BD2402FF2030
:102A80002043C00570BD1B0EFF2A03D0FF2B01D0D1
:102A9000E00770BDFF2645003606B54206D84D005A
:102AA000B54203D8D218FF2A00D0E7E7004870BD2E
:102AB0000000C07F03B402487844844603BC6047EA
:102AC00063E3FFFF001BB7000000000080F0FA0284
:102AD00010270000000000000000000000000000BF
:102AE00000805101001BB700000000000000000042
:102AF00000805101001BB700000000000000000032
:102B000000805101001BB700000000000000000021
:102B100000805101001BB700000000000000000011
:102B2000000000000000000010270000000000006E
:102B30000080510130313233343536373839414233
:102B4000434445464030580030313233343536370F
:102B500038396162636465664030780081828384BD
:102B600085868788898B8C8D8E8F91929395969789
:102B7000999A9C9D9FA0A2A3A5A7A8AAACAEB0B20B
:102B8000B3B5B7B9BCBEC0C2C5C7C9CCCED1D4D706
:102B9000D9DCDFE2E6E9ECF0F3F7FAFE02400000F0
:102BA000000000A00000000005400000000000C878
:102BB000000000000C4000000000409C00000000ED
:102BC000194000000020BCBE00000000344000009E
:102BD000BFC91B8E00000004B5400000504BCFD091
:102BE0006607E2CF010000006C4100003E8251AA5E
:102BF000DFEEA73401000000D9420000DCB5A0E2FE
:102C00003A301F97FFFFFFFFB4450000FD25A0C825
:102C1000E9A3C14FFFFFFFFFFF3F0000000000805E
:102C200000000000FF3F00000000008000000000E6
:102C30006C2C000000000020DC03000004010000F8
:102C400048300000DC030020740400002001000074
:102C50001C00000043000000F8FFFFFF0C00000014
:102C60000E0000000F0000002E00000080F0FA02AD
:102C70003200000080F0FA02001E00000000000098
:102C800000000000000000000000803F0000000085
:102C900004000000000000001C000000487A3D0015
:102CA0000000000000000000000000000000000024
:102CB0000000000000000000000000000000000014
:102CC0000000000000000000000000000000000004
:102CD00000000000000000000000000074696D6545
:102CE0003D00020E030F000C000000000000000079
:102CF0000000000073747261696E3D004CA6AA3E2C
:102D00000000803F666666402FDD2C413D0A04428C
:102D10007B14C642983A0000102700004C1D0000AA
:102D20007017000088130000BD100000A60E000000
:102D3000050D0000B80B0000A70A0000C409000040
:102D4000030900005E080000D007000053070000E0
:102D5000E4060000820600002A060000DC050000F0
:102D6000940500005305000018050000E20400006F
:102D7000B004000081040000570400002F0400008C
:102D80000A040000E803000000000000000000004A
:102D90000000000000000000000000000000000033
:102DA0000000000000000000000000000000000023
:102DB0000000030F1E3873CF9F3E7973E79E9C3847
:102DC0007060C080000000000000000000000000F3
:102DD00000000000000000000000000000000000F3
:102DE00000000000000000000000000000000000E3
:102DF000000000010307060E0C041018180E0F2720
:102E00002330381E0F2330381F0700000000000059
:102E10000001071F3EF8E38F3EF8F1C71F7CF0C0AA
:102E20008000000000000000000000000000000022
:102E30000000000000000000000000000000000092
:102E40000000000000000000000000000000000082
:102E50000000070E3860C080000000000000000085
:102E6000000000C0F8FF1F07C1FCFF1F07E1F83C8E
:102E700011070F3C78F3C71F7EF9E38F3E7CF0C04B
:102E80000000000000000000000000000000000042
:102E90000000000000000000000000000000000032
:102EA0000000000000000000000000000000000022
:102EB0000000000000FF8000000000000000000093
:102EC00000000000000000000000C0F0F87800C41E
:102ED000C81030E4C8983870E4C8983070E0C080FA
:102EE000000000000013121E1E13121F17121614EA
:102EF0001F320300000000010F3801073C090808D9
:102F00000F0808090F000000001F1F1010101010FC
:102F100010101010101F1F0000F01C07010000000F
:102F2000000102040D176C71E78C1861C30419339A
:102F30004599324083E7CD33665CB0E081070704F2
:102F40000000000000000000012DC98919FD765223
:102F5000D257DD9D99E1A1000000C0C0FF00801C98
:102F600078C10101FF0080F01E00000000FFFF0398
:102F7000030303030303030303FFFF000000000038
:102F800080C0603098080C040402020201010101B3
:102F9000010101010101020202040408081030606D
:102FA000C0800000000000000000000000000000E1
:102FB000000000000000273F382000010306040441
:102FC0000703000004071F1C040000000931212131
:102FD000223E1C0000000000000000000000000075
:102FE00000000000000000000000000000000000E1
:102FF00000000000000000000000000000000000D1
:1030000000000000000000000000000000000000C0
:103010000000000000030701013EFCC0000078FC36
:10302000A4242444C488000038FCC40400000C1C00
:103030000404048CF8700000000000000000000090
:08304000000000000000000088
:04000005000001E90D
:00000001FF
