:020000040000FA
:1000000088090020DD010000FD010000FF01000063
:1000100000000000000000000000000000000000E0
:1000200000000000000000000000000001020000CD
:1000300000000000000000000302000005020000B4
:10004000070200000702000007020000070200008C
:1000500007020000C920000007020000070200009C
:100060009937000035380000070200000702000041
:10007000070200000702000007020000070200005C
:10008000070200000702000007020000070200004C
:10009000070200000702000007020000070200003C
:1000A000070200000702000007020000070200002C
:1000B000070200000702000007020000070200001C
:1000C00000F002F800F05FF80CA030C808382418DF
:1000D0002D18A246671EAB4654465D46AC4201D180
:1000E00000F051F87E460F3E0FCCB6460126334253
:1000F00000D0FB1AA246AB463343184728550000F0
:1001000048550000103A02D378C878C1FAD852078F
:1001100001D330C830C101D504680C6070470000BD
:100120000023002400250026103A01D378C1FBD813
:10013000520700D330C100D50B60704710B5662957
:1001400002D105F089F910BD642902D100F0B0F8A0
:1001500010BD782902D100F0E1F810BD632902D169
:1001600001F057FB10BD002010BD1FB5C046C046B2
:1001700001F084FB04000020002105F045F8E06058
:100180001FBD10B510BD01F0D5FE1146FFF7EDFF04
:1001900004F050F901F0EDFE03B4FFF7F2FF03BCE9
:1001A00001F032FF70B505460C46164602E00FCC52
:1001B0000FC5103E102EFAD2082E02D303CC03C571
:1001C000083E042E07D301CC01C5361F03E0217879
:1001D0002970641C6D1C761EF9D270BD0D480E4945
:1001E00001600E4901600E4901600E4A0E4911601E
:1001F000002101600D4880470D480047FEE7FEE7FB
:10020000FEE7FEE7FEE7FEE70A480B49094A0B4B0B
:100210007047000000010050590000001600000067
:100220008800000024000050A55A0000913600000C
:10023000C1000000880700208809002088070020EE
:100240000FB4054910B503AA029801F0EFFA10BCEB
:1002500008BC04B0184700003405002070B50C46F7
:100260000546012A05D02878800600D5EA690023D2
:1002700002E0012305E05B1C934202D2E05C00280F
:10028000F9D1A869E618C01AA861286AC0182862BE
:100290002846C046C04604E06A682078A968641C05
:1002A0009047B442F8D32846C046C04670BD00000F
:1002B000F7B5002575291068009914A611D0C0461D
:1002C000C046002802DA404211A608E000990968F9
:1002D0008A0701D50FA602E0490704D50EA601251D
:1002E00001E0C046C046009F0024243704E001F02E
:1002F000B1FA30313955641C0028F8D12B4632460A
:100300002146009801F017F8FEBD00000000000033
:100310002D0000002B0000002000000070B50446F6
:100320000D4621461068C046C0462188090502D501
:100330000F4A7A4402E00E4A7A440E3223460021E4
:10034000243305E00607360F965D5E54491C00090C
:100350000028F7D120780023000705D5702D03D0A1
:10036000002901D011320223204600F0E4FF70BDC5
:1003700072510000F3B50446002081B0206220468F
:10038000E168884700287AD0252802D06268A168F1
:1003900071E0E16820460025884706460020E061BC
:1003A0000746A0612A2E0AD0304603F01DFB002824
:1003B00027D0303EB80000190090866119E00298FD
:1003C000BA00121902C8916102902046E16888477C
:1003D000012F064617D1E06900281FDA2020854347
:1003E0001CE000980A218069484300998019303840
:1003F00088612046E1688847064603F0F5FA002840
:10040000EFD1012F0AD02E2E08D12046E16888476F
:100410000646202005437F1C022FC3DBA06900286D
:1004200003DA4042A06101200543E80701D0102013
:100430008543002E23D030464138192803D80120A7
:10044000C00205432036204625603146029A1546F3
:10045000FFF774FE00280BD0012806D0ED1DE80838
:10046000C000083002908AE709E02D1D029586E75A
:1004700062683046A1689047206A401C7EE7206A87
:10048000FEBD002203098B422CD3030A8B4211D3F9
:1004900000239C464EE003460B433CD40022430815
:1004A0008B4231D303098B421CD3030A8B4201D305
:1004B00094463FE0C3098B4201D3CB01C01A52419D
:1004C00083098B4201D38B01C01A524143098B42ED
:1004D00001D34B01C01A524103098B4201D30B01D6
:1004E000C01A5241C3088B4201D3CB00C01A5241FB
:1004F00083088B4201D38B00C01A524143088B42C0
:1005000001D34B00C01A5241411A00D20146524158
:10051000104670475DE0CA0F00D04942031000D377
:100520004042534000229C4603098B422DD3030ACC
:100530008B4212D3FC22890112BA030A8B420CD3DC
:10054000890192118B4208D3890192118B4204D305
:1005500089013AD0921100E08909C3098B4201D385
:10056000CB01C01A524183098B4201D38B01C01ABF
:10057000524143098B4201D34B01C01A5241030936
:100580008B4201D30B01C01A5241C3088B4201D3E5
:10059000CB00C01A524183088B4201D38B00C01A92
:1005A0005241D9D243088B4201D34B00C01A524169
:1005B000411A00D20146634652415B10104601D3F6
:1005C0004042002B00D54942704763465B1000D380
:1005D000404201B50020C046C04602BD704770478A
:1005E000704700000246C80FC00781434B0030B57A
:1005F0004B405B009B0D20D01923DB06C91801235B
:100600001B05994220DB0324A40704251346AB40B5
:100610000BD3002B04D1EB0613409B001B1904D411
:1006200001246407002312195941FF231B05994235
:100630000BD2C9000143500F09E0CB0204D501439E
:100640000803024305D0054830BDFF21C905084312
:1006500030BD084607210905884330BD0000C07F32
:10066000F0B50C46871A9C410D46861A9D4103D26F
:10067000C01BA141D21963410D0D1F0DC64EEC1BCD
:10068000AE435BD07F057F0D0026002F50D02D0597
:10069000AC46A943DD020123ED0A1B051D432023BF
:1006A0001B1B23D41746E740381871412F46E740FB
:1006B000CC199D402818314661410C0D26D161446A
:1006C0009A4012D50023401C594152000DD14008D8
:1006D0004000B24A4B00934207D305204007081858
:1006E00001D5511000E0AE493046F0BD6B00002A44
:1006F00000D001229A18203C1F231B1B01D5002388
:1007000002E0E540281871410C0DD8D001242405E1
:100710000919C407CD0740084908E40F284361447C
:10072000002CD6D00024401C61419A40D1D1CEE7A4
:100730006A05520DD9D1C90FC907D5E7974D4E00AB
:10074000002801D0012400E0002434195F00002AB1
:1007500001D0012600E00026BE19924FAC420BD812
:10076000AE4209D8B44205D0BD00AC42BDD010465F
:100770001946F0BD9942FCD000203946F0BDF0B5D5
:100780001FB40C460F46811A9F412546861A9D418B
:1007900006D20125ED076F40401ABC4152187B413B
:1007A000210D1E0D8D1BAC467B4D8D437ED07505F6
:1007B0006D0D7CD00D05AE46AC431B031B0B7A4D73
:1007C00052429D41202366469B1B14D31746F74097
:1007D000381800260090744160462F460741E419FE
:1007E00000989D402818664116D4714671189A40A9
:1007F00025D5012320E093182A466A415200002B98
:1008000000D0521C203E1E239B1B002B61DD354176
:10081000EE1728186641E8D5001876415B1C9A400F
:1008200000D3401C4B05F3181524E34010D3002BD4
:1008300052D071467118D30FC01802D3491C05B0AD
:10084000F0BD0123DB079A42F9D140084000F6E7EA
:1008500001225205B21801D1002853D00123CC0A3D
:10086000DB029943891E002A08D1020C03D0020C36
:100870000004103902E00246002020390023550B05
:1008800005D112020823550B01D152010D23550C3D
:1008900001D112011B1DD50C01D192009B1C150D1D
:1008A00001D152005B1C2025EE1A01E02CE022E071
:1008B0000546F54015439840CA1AE1076918130523
:1008C000C918002ABBDA032040070818C10FC9075E
:1008D0000FE071466118B2E7F10740080843711054
:1008E00071444A000CD001235B059A42A7D2C90F7C
:1008F000C9070020A3E74905490D25D1002001E0E3
:100900000028F4D100219AE7244D6600002801D088
:10091000012100E0002171185F00002A01D00126AA
:1009200000E00026BE191F4FA9420FD8AE420DD8D5
:10093000B14207D0BD00A94206D01946A8024140E5
:1009400010467CE79C4201D0214678E700203946DA
:1009500075E730B40C465C4004D50124E4076340DD
:1009600030BC0CE730BC7BE630B40C465C4004D5B0
:100970000124E407634030BC72E630BCFFE630B4CB
:100980000124E40761400D465D4001D430BC67E6B8
:10099000634030BCF3E60000FF0700000000E0FF0A
:1009A0000000F07F0000F87F0000F0FFF0B51FB4FA
:1009B000FA4F0E091D09BC463E403D400C46B74368
:1009C0005C408CB0002F7DD06746AF43FBD0002D3C
:1009D00079D0002EFCD0E20F3243521BFF24A40436
:1009E00012190892420DCD02C7020E981543420D0E
:1009F000D9021143C202600305430143080C01956B
:100A0000150CAC4605040B46AB430A9565462D0410
:100A1000AA430995E24D040A7D446419803C257877
:100A200006466E4301247619E405A61B7543ED0CBA
:100A3000AD1C490B69434919A401611A0E0CB64655
:100A40003604B143694376466E43090C711889092F
:100A50000591F90700D0A100049101997F08CC0706
:100A600027434C08059DE10B4D432D0C2946664656
:100A7000754302950D4645432E46029D7D1BB441AC
:100A800000950D465D4301942C0C2F040D465543F3
:100A9000AE462D0C3D43029503947546049C2D04EF
:100AA000641B049406D2029C039D641C00267541BD
:100AB0000395029401AC70CC009F7D1BB4410904E6
:100AC000009501E03BE15FE1079101940599A408DD
:100AD0006143090C0C464443650BE70464464C43F0
:100AE000A646640B3C43039502947446049DE404BB
:100AF0002C1B049406D2029C039D641C00267541A5
:100B00000395029401AC70CC009F7D1BB44101940D
:100B10000C465C430095650FE7000C465443A6461F
:100B2000640F3C43039502947446049DE4002C1B1F
:100B3000049406D2029C039D641C00267541039513
:100B4000029401AC70CC009F7D1BB441AE09AF068E
:100B5000049DC900AD092F43049DA406AD0604956C
:100B6000079D344369180791059DE10B4D432D0CFA
:100B700029466646754302950D4645432E46029D1D
:100B80007D1BB44100950D465D4301942C0C2F0450
:100B90000D465543AE462D0C3D43029503947546D4
:100BA000049C2D04641B049406D2029C039D641CC7
:100BB000002675410395029401AC70CC009F7D1B0B
:100BC000B44101948C050694079C890A611800952C
:100BD0000791019C0599A4086143090C0D46454302
:100BE000680BEF040D46644665436C0B3C43049F61
:100BF000ED047D1BAC4602D20025641C6841009EBA
:100C0000019D371B85410846584301950C46460F08
:100C1000C5005443600F28436546E4002C1B02D2F4
:100C20000025401C6E41019D3F1AB5412846BD0973
:100C3000800628438446A009BF064E020699A406F2
:100C400076180743079D002068410A9907901943C9
:100C50000020099B00906046FF1913434041E20FBA
:100C600064003A43A4460446D71A8C41A04203D9F3
:100C70000120009020463A46C70F94184041624632
:100C8000D20F2243644664000494009CBE46640074
:100C9000D71AA446044602978C417746002F01D10B
:100CA000A04204D96046401C8446029A2046C40FE4
:100CB000A64694184041049A0546D20F2243644642
:100CC0006400D31A8D417146002901D1A84202D98E
:100CD000641C28461A4610430122002800D01643FF
:100CE00061020020079B044689195C410223002C05
:100CF00002DB491813466441089DCE0A2D145D1984
:100D00004B056705E10A2C050C1908993E43C907F4
:100D10006140002B08D0934006D30022761C51413D
:100D2000002B01D1760876001E4A002C45DB2346B5
:100D3000134242D0A24340D0304611B0F0BD0E461F
:100D400007184E41184D7A42B5411AD30E9A1D46E6
:100D500096185D41144A7642AA4112D301225205E7
:100D60004D00D5420AD15C00D4420AD04B4002D596
:100D700092021143E1E749004908DEE7E10FC907A4
:100D80000AE000200949D8E70648014212D0084885
:100D900021460143C01241400020CEE70000FF077A
:100DA000B44A00000000F07F0000E0FF0000F87F80
:100DB000FFFFFF7F0342E4D0E0E70123089A9B0690
:100DC0009A4205DC032252078918C90FC907B4E704
:100DD000052252078918074A1143D2125140ACE745
:100DE0005940504010B54B40424059405040FFF7E9
:100DF000DDFD10BDFFFFFF7FCB02420D10B51A4392
:100E00000B1504D00124E4072243002B06DB0A4C17
:100E1000E31A05D41046D840FF2B00DD002010BD9A
:100E20004A00002800D001201018044A9042F5D84A
:100E3000C817C04310BD00001E0400000000E0FF02
:100E40001F22030C02D10F22000402D0030E03D094
:100E500004E0002001467047083A0002030F01D168
:100E6000121F0001830F01D1921E8000002801DBB8
:100E7000521E4000120551184205C012411810467A
:100E80007047C10FC90700D04042012292071143A9
:100E9000D6E701218907D3E7F0B5904C0D09264626
:100EA000AC46AE430D465D4087B0002E7ED01E0995
:100EB0002746B743FAD067462740ED0F3D4326400B
:100EC00075D024012142FBD07419FF25AD04641BA9
:100ED0000494CC02D90201231B05C90A1943E40A70
:100EE0001C430F012401030F110F1C430F43050185
:100EF000A10B88032D0916018443A80B8203954397
:100F0000BB0B9A0397433609BC46B20B9703BE430B
:100F10000746574303972F4677430296BE46029FE4
:100F20004619D71906967E430597039FF71B764609
:100F3000BE1B77463F0100970196039FB60BF6193B
:100F4000B646019E009FB604BF1902D37646761CB2
:100F5000B64676467600002F01D001273E4367460D
:100F60007D43AE46029F25467D4300956D00AE1938
:100F700075466D00AF1965465D19069E03956E4373
:100F80007546751BAE460D19059E02956E43009D74
:100F90005843761B75462D1A4A439646B21A00925C
:100FA0000195FA0606D07D09012201E076E072E0A3
:100FB000154300E07D09020A0006002745197A4121
:100FC0007646300A360676195041019A950D9202FE
:100FD000961945410098820D800280196A41594353
:100FE00063465C43039D029B6B435B1A1E1BB30E5F
:100FF000B601B6187B410A0B090589195A41230A23
:10100000240624184B418B4200D2521C012040027E
:10101000824203D315210226F64302E0142103265F
:10102000F6432020451AAA401F46AF40CB40204639
:10103000C840049913430914711809055A180499F2
:101040003843C9075140AC4009D001239C4006D326
:101050000023401C5941002C01D140084000204B86
:10106000002A03DB1A4201D08B4312D101220498DB
:101070009206904207DB05204007091819480143F2
:10108000C012414004E0032040070818C10FC907FF
:10109000002007B0F0BD0020E907FAE706180C466B
:1010A0004C4111487642A04114D394181A465A4133
:1010B0000D48644290410DD3012049004005814212
:1010C00008D35900814205D3E90F054AC90700201A
:1010D0001143DEE700200549DBE700000000FF07C1
:1010E0000000F07FFFFFFF7F0000E0FF0000F87FBF
:1010F0000121C9050123411842001B06D3185B0ECC
:101100000BD0C1100722D2068918400752428A1814
:1011100002D50922120789187047090208D501462D
:10112000002A03D0C10FC90700207047104670473E
:10113000420202D0002003497047072109050143FC
:10114000F4E700000000F87F70B5FF242404C6090E
:10115000FF25264001352E43C209CB090546224012
:1011600023404D40002A6BD0002B69D0A24267D0AB
:10117000A34265D0002D00DA32460124E405214364
:10118000204309020002090AD21A000A4B0C7F24EC
:10119000E31A434C7C44E35C7D24240412191414A8
:1011A0005B00A218884201D3521C00E04000494273
:1011B0000C465C4324115C43DB016415E318040A0C
:1011C0005C43C502200D0C4644436419250A5D4367
:1011D0002303EC0C0D46654300030019EB184C4249
:1011E000A34201D35B18401CD4052018002B07D064
:1011F0005B00C91804D3401C002901D140084000FD
:101200003F2189048A4209D3002A08DC1106090F0C
:1012100004D0032149074018C00FC00770BD012248
:101220004100120689187F2252069142F6D205210A
:101230004907401801D5901070BDFF20C00570BD52
:10124000002D00DA3246174EA24207D2A34205D241
:101250001802000E17D0E80FC00770BDFF2443002E
:101260002406A34216D84900A14213D8A34201D1B3
:10127000A1420FD0A14201D1002101E04100490863
:10128000D005084370BD1002000E03D0FF200243BA
:10129000D00570BD304670BD48404140484053E7DE
:1012A000B84300000000C07F01460002CA1504D008
:1012B0000123DB071843002A09DB9E239A1A01D475
:1012C000D0407047FF2248001206904201D900200A
:1012D0007047C817C04370471F22030C02D10F226A
:1012E00000041CD0030E01D1083A0002030F01D103
:1012F000121F0001830F01D1921E8000002801DB24
:10130000521E4000D2055118021251181922904065
:1013100004D3491C002801D14908490008467047F8
:10132000C10FC90700D04042012292071143D3E701
:1013300001218907D0E7FFB504460D4681B024306E
:1013400000902168880604D51022E069914321604D
:1013500000E00120A84201DD471B00E000270498BF
:10136000A1697A191018081AA0612078C00602D461
:101370002046C046C046002608E003986268A1687F
:10138000805D9047206A401C761C2062049886424B
:10139000F3DB2078C0060AD52046C046C04606E0EA
:1013A0006268A16830209047206A401C206238465D
:1013B0007F1E0028F4DC07E000986268A168405DA9
:1013C0009047206A401C206228466D1E0028F3DCEE
:1013D0002046C046C0462078000602D5022005B04F
:1013E000F0BD0120FBE700007047FFB50C461E462C
:1013F0008FB003CA089009914F007D0D00D16D1E7A
:10140000002108460020C0460321099A89050840AA
:10141000002A03DA8200801840080840800D012865
:101420000A9002DD0020C0430A90089807430DD0BF
:10143000EF48F049281848430714189800281DD091
:101440007542291E1DDD0A9842421BE018980128AA
:1014500002D00020302104E00020F24305E02154B6
:10146000401CB042FBDB30460022189B0021215477
:101470000F998B600A60486013B0F0BDBD1B6D1CF6
:10148000DFE70A9A002900DA69420BA800F094FA13
:101490000BA803AB07C807C30899099800F0F2FA34
:1014A00001910146D44802920918002D00910ADDED
:1014B000D14903980A9A4942401803A90390684603
:1014C00000F005FD07E003990A9A081803A90390A4
:1014D000684600F0D2FC009000040292000C0191DA
:1014E00003D00020C043410800E01046189A002AAB
:1014F00003D00022009215461EE0751E05D400F0B0
:10150000C1F9303262556D1EF9D5012208430796A4
:1015100002D000227F1C04E02078302801D1002274
:101520007F1E002A069788D01EE0112D07DA00F0F2
:10153000A9F9303262556D1C02460A43F5D10843C1
:101540000FD10021681E05E0235C625C6354491CD6
:101550002254401E8142F7DBA81B401E07950690CF
:1015600002E0009800280AD0079A18990020A05499
:101570000F98079B069A4360026081607CE7112602
:101580000020189059E7D21DF0B50D460446D10849
:1015900093B0C90003C90C900D9102F00FFA0246F6
:1015A0000D98C00F01D02D2007E02068810701D5DC
:1015B0002B2002E04007C00F4001032A0F9001D00A
:1015C000072A05DB03462946204600F0B1F90DE164
:1015D0002078800601D5E76900E006272846652DBA
:1015E00004D0662814D0672D69D12DE00020112F7A
:1015F000009001DB112300E07B1C0CAA03A910A8BA
:10160000FFF7F3FE1199002610987D1C0E9142E021
:1016100001203B460CAAC0070B900120009003A9B3
:1016200010A8FFF7E2FE119D1298109900260028DD
:101630000E9501D1781C0D18781B02D44642761EF7
:101640007D1CE81B00903AE0012F00DA0127002002
:10165000112F009001DD112300E03B460CAA03A9E5
:1016600010A8FFF7C2FE11993D46109800260E9172
:10167000217809070BD40E99A94200DA0D4603A977
:10168000012D04DD4A19203AD27F302A06D0B84213
:1016900001DA011D04DA012100910FE06D1EEFE770
:1016A000002802DC86192D1A03E0411CA94200DD46
:1016B0000D46801B401C00900120C0070B90207835
:1016C000000705D40098A84202DB0020C043009028
:1016D00069460020C8720B98012102AF0337C90781
:1016E000884225D0022010902B2011900B980028C2
:1016F0000BDA40420B902D20119006E00B9800F081
:10170000A9F830317F1E0B9039701099481E0029BE
:101710001090F3DC0B980028F0D111987F1E3870E0
:101720002088000501D5452000E065207F1E387027
:1017300001A8C01BC01D0B900F98002800D00120ED
:1017400041190098C01709180B980818A169081AC0
:10175000401EA0612078C00602D42046C046C04684
:101760000F98002805D06268A1689047206A401C45
:1017700020622078C00624D52046C046C04620E01E
:10178000002E07DB0E98B04204DD03A86268805D7E
:10179000A16802E06268A16830209047206A761C48
:1017A000401C20620098401E00900AD100F066F8AC
:1017B000C06862680168405CA1689047206A401C6C
:1017C000206228466D1E0028DADC07E0626838785F
:1017D000A1687F1C9047206A401C20620B99481E1C
:1017E00000290B90F2DC2046C046C046022043E6AA
:1017F00001FCFFFF104D0000E1DFFFFF10B5436962
:10180000002B02D0C046C04601E0FEF727FD0120B4
:1018100010BD1278014624310A7000224A7001225C
:10182000ECE711680022D243E8E70000084B70B5EE
:101830000D467B4400F069F80446284602F0E8FDB6
:10184000002802D00020C04370BD204670BD0000BB
:10185000E12B000001468008081A02091018020A4C
:101860001018020C1018C008820012185200891AB1
:1018700001E00A39401C0A29FBD270470048704732
:10188000480700200B4670B50246890780080843C8
:1018900019469D08141AA941250908070543080996
:1018A0002C194841250A01060D43010A2C19414112
:1018B000200C0D0428430D0C00194D410021401946
:1018C0004D41C00869070843E908840F8D0025438E
:1018D000840024184D4124196D41121BAB4107E0CF
:1018E0000925ED432C11521963410024401C61412C
:1018F0001C460A250026551BB441F1D270BD0000DC
:1019000001694A1C02610878704700B58FB00291E6
:1019100000210591054901937944039111460490F2
:101920006846FEF727FD0FB000BD0000E5FFFFFF92
:10193000F8B51F46044601230068DB020326014672
:101940001840072A05DB002801D017A506E017A5D7
:1019500004E0002801D016A500E016A51020814360
:101960002160A069C01E002FA06101D0401EA061AF
:101970002046C046C046002F09D038466268A1689C
:101980009047206A401C2062C01C206206E0206A4A
:10199000FAE762682878A1686D1C9047761EF8D235
:1019A0002046C046C046F8BD4E414E006E616E00F6
:1019B000494E4600696E6600F7B516468AB0304853
:1019C00078446C4603467C33C06F5A689B680DC4EC
:1019D0002B4B7B446E33083303AC0DCB0DC4372047
:1019E000C001081837211B30FEF755FD05460C468F
:1019F000803D1B3C02D56442012000E0002000270E
:101A000009900FE0E0070BD00C201D497843794482
:101A100032464E394118684600F02FFA6B4607C32C
:101A200064107F1C002CEDD1154F7F442E3F16E033
:101A3000E80712D02001C01901460EC9069108938B
:101A40000792C068F04201D198190890324606A961
:101A500003A800F012FA03AB07C36D10641C002D3D
:101A6000E6D1324669460998002803A802D000F062
:101A70002EFA01E000F001FA0A9B07C30DB0F0BD99
:101A8000CC3B0000034640000A4610B5400D0BD089
:101A90000121C9070F24A40200191C036408214373
:101AA000540D2143D20207E000210120F2E7D40FB8
:101AB000490021435200401E0029F8DADB0FDB0702
:101AC000184310BDFFB50D46144685B048685168EF
:101AD00001F05CFF00910190A868A16801F056FF39
:101AE00002910390A868616801F050FF029A1218F1
:101AF0008242029201D2012000E00020019A0B18DC
:101B0000D2180028019202D08A4202D903E08A4208
:101B100001D2012000E000200099081800906868B8
:101B2000A16801F033FF029A12188242029201D298
:101B3000012000E00020019A0B18D2180028019221
:101B400002D08A4202D903E08A4201D2012000E099
:101B5000002000990818009028682168400049007A
:101B6000400849084018EE49471814E00199400020
:101B7000C90F08430090019802994000C90F08431B
:101B80000190029803994000C90F084302900398FE
:101B900040007F1E039000980028E7DA089800288C
:101BA00001D0E04E00E00026B74228DAF71BF80625
:101BB000C00E15D0029B2021091A039A8B401A43AC
:101BC0000392029A019BC2408B401A430292019AEF
:101BD000009BC2408B4000991A430192C140009182
:101BE0007A110BD06B460320811A01D5002101E048
:101BF000890059588700401ED951F5D537460398BA
:101C00000299002800D00120014308980291002881
:101C100008460CD0002800D001200199019A4905FE
:101C200008430121D20AC902D202019200E0012137
:101C30000E9B0122D207012B02D0002B03D013E010
:101C4000002807D116E0904204D890420CD1019BA5
:101C50000B4209D0019B5918019105D10099491CEB
:101C6000009101D17F1C0092002803D0102108466A
:101C70000020C04628682168019B009A4840C10F97
:101C80000598C90739430EC009B0F0BDFFB587B04C
:101C9000099A089808995368926840688968964636
:101CA0000022039317469446089A12685300099A33
:101CB0005B081268520052089A1A9B4BD4180A9A71
:101CC000002A01D0352200E04022069200220123A2
:101CD00015460492DB07059324E0002D05D17546D7
:101CE0000346039E4D1BB34109D375466646039BCD
:101CF000491B049D9841059B7519AC465F4163469D
:101D00003B4308D0059B049EDD0776082E435B0805
:101D10000496059301E0641E521EC50FED07491895
:101D20004041521C069B9A42D7DB002D04D17546D8
:101D3000039A6B1A824101D203200CE0039A0B46EE
:101D40006B404240134301D1022004E0014301D023
:101D5000012000E0002061460191002100970291DE
:101D60000A99002905D06146400201436D4B01915B
:101D700002E08007002302909C423ADA1A1BD00648
:101D8000C00E15D0029D2021019C091AC5408C402F
:101D90002543029C8C4000D001242543019C0295E0
:101DA0003D46C4408D4039462C43C14001940091CA
:101DB00054111DD06D460221002202290CD10320AE
:101DC000001B07E0002804DB8600AE59002E00D07F
:101DD0000122401C0328F5DB081B02D588002A508D
:101DE00004E08000285810438A00A850491EE3D51B
:101DF0001C460A98002802980CD0002800D0012028
:101E00000199019A490508430121D20AC902D20267
:101E1000019200E00121109B0122D207012B02D088
:101E2000002B03D013E0002807D116E0904204D81D
:101E300090420CD1019B0B4209D0019B5918019192
:101E400005D10099491C009101D1641C0092002821
:101E500003D0102108460020C04608980999019A2D
:101E60000068096848400099C30F0798DB072343BF
:101E70000360826041600BB0F0BD1FB5002300928B
:101E80000A46014601A8FFF71DFE01A807C804B0D5
:101E900010BD1FB5012300920A46014601A8FFF7B5
:101EA00011FE01A80F2407C8A402C30F4000DB07DE
:101EB0004008001B002900DB0020490000054908FC
:101EC000CC0A204349051843D20A1143DFE71FB566
:101ED000002300920A46014601A8FFF7D7FE01A899
:101EE00007C8D4E71FB5012300920A46014601A89E
:101EF000FFF7CCFE01A80F2407C8A402C30F4000BF
:101F0000DB074008001B002900DB0020490000051A
:101F10004908CC0A204349051843D20A1143B6E7C1
:101F200002C0FFFF013C0000FF3F00000048704777
:101F3000280700207546FFF7F9FFAE460500694601
:101F40005346C008C000854618B020B5FEF75CF9BE
:101F500060BC00274908B6460026C0C5C0C5C0C53C
:101F6000C0C5C0C5C0C5C0C5C0C5403D49008D463F
:101F700070470446C046C0462046FEF70DF90000F3
:101F8000024670B50A4392072AD11E4DEE0104C8DD
:101F900008C9541B9443344017D0D0B2D9B2401A68
:101FA0002106014310D190B299B2401A2104014395
:101FB0000AD110021902000A090A401A210201433B
:101FC00002D1100E190E401A70BD9A42DFD010BA1D
:101FD00019BA884201D9012070BD0020C04370BDEC
:101FE00002780B78401C491C002A09D09A4207D17C
:101FF00002780B78401C491C002A01D09A42EFD08D
:10200000D01A70BD0101010101491820ABBEFEE7E5
:10201000260002007047000010B504460549064B33
:1020200003E00A46491E002A03DDDA682046904391
:10203000F7D110BD90D003000002005030B500224F
:102040008021F82001F06CFC19256D01284601F073
:1020500013FE00241022A021FA2001F061FC284682
:1020600001F00AFE0022D021FA2001F059FC284696
:1020700001F002FE641CE4B2202CEBD330BD30B57D
:10208000002528468030C0B201090007020E090170
:10209000F82001F045FC00228021F82001F040FCEE
:1020A000002400221146FA2001F03AFC00221146D9
:1020B000FA2001F035FC641CE4B2102CF1D36D1C45
:1020C000EDB2202DDDD330BDF8B5FE4801F0D4FDD2
:1020D000FD48006A7F25C006ED053C26FB4F002425
:1020E000FB4A00287EDAF8481021016243690B435D
:1020F0004361907D002879D0D07D532805D0947518
:102100005475D475547094758CE19078401E90701D
:102110009078062801D3052090701646907802F03A
:10212000EFFFB07802280FD0B078032819D0B0782C
:10213000012824D0B07804282CD0B078052836D0D7
:10214000B07800283CD04BE0F46274630420306324
:10215000B063FF20F530B0644B200001F064DD482F
:102160000BE0F462746304203063B063FF20F53049
:10217000B0644B200001F064D748B0622BE0062029
:10218000F062706310203063B063AF20C000B064B1
:10219000D2481EE00620F06270631C203063B063FA
:1021A000AF20C000B064CE48F064CE48E5E70B2015
:1021B000F06270631C203063B0634B20400106E086
:1021C000F46274631C203063B063FF20F530B064A8
:1021D000C348F064B562326BF16AC3A0FEF730F811
:1021E000B17801E033E001E0C8A02DE0507D012886
:1021F00004D1B74825300078032814D0507D012839
:10220000507818D0401E50705078042801D3032015
:102210005070507D1546022801D001F0EDFB687D1D
:1022200002280FD0D9E05078401E50705078022814
:10223000EFD30120ECE7401E507050780328E8D31C
:102240000220E5E72C71BFE0FDF7FAFFF8BD9E49DB
:102250004031086AC00776D0012008624B69034309
:102260004B61984801F008FD9948807D0028984806
:102270006AD0C17D532909D04475C47544708475F2
:102280007E60FFF7DBFE00F08FFA8BE08178491C5F
:1022900081708178062900D384708D48807802F09F
:1022A0002FFF8B488078022889480FD08178032936
:1022B00019D08178012924D0817804292CD0817803
:1022C000052937D0817800293FD04EE0C4624463AD
:1022D000042101638163FF21F53181644B210901F0
:1022E000C1647C490BE0C4624463042101638163DF
:1022F000FF21F53181644B210901C1647649816276
:102300002EE00621C1624163102101638163AF2188
:10231000C9008164714921E00621C16241631C2129
:1023200001638163AF21C90081646D49C831C16413
:102330006C49E4E70B21C16241631C2101638163A5
:102340004B21490108E04BE015E0C46244631C21C5
:1023500001638163FF21F53181646149C164856254
:10236000026BC16A60A0FDF76BFF5948817867A0D6
:10237000FDF766FF16E0417D012904D1544925315E
:102380000978032913D0417D0129417816D0491CD1
:1023900041704178042900D34470407D022801D067
:1023A00001F02AFB4A4D687D02280DD015E04178E6
:1023B000491C417041780229EED2EEE7491C417078
:1023C00041780329E8D2E8E76C75EC756C70AC7560
:1023D0007E60FFF733FE00F0E7F9697852A033E73B
:1023E0003948036A1B0623D58021016243690B43E8
:1023F00043611078002805D0147051490869012301
:102400005840086110781546401C107011784DA096
:10241000FDF716FF687D022800D017E76C75EC7594
:102420006C70AC757E60FFF709FE00F0BDF9F8BD79
:102430000B6A5B0744D5042008624B6903434B6178
:10244000907D002816D0907D0128F0D120490020F1
:1024500025310C54401CC0B20328FAD3D4755470F3
:1024600094757E60FFF7EAFD00F09EF93BA0FDF752
:10247000E7FEF8BD517815461548527D2530815448
:10248000697D425C697D38A0FDF7DAFE6C70AC7046
:10249000687D401C6875687D01287DD0687D0228B4
:1024A00074D0687D032872D36C7509482530017893
:1024B00000296DD0017801296BD00178022969E0EB
:1024C000D4E069E020A10700C0400050380500209A
:1024D00010000020E7FB8140BC745340480D000011
:1024E000A8160000C633C83E0A20677563543049F9
:1024F0006E6465783D25642C677563696E646578E4
:102500005F72616E67653D2564200A000A2073656D
:102510006C6563745F667265715F72616E6765207A
:102520002564200A000000000A2073656C6563744E
:102530005F636F6D6D616E64202564200A0000008A
:10254000404200500A0A636F756E74657220402025
:102550006C656674202564200A0000000A20636C04
:10256000656172200A0000000A20696E746572724B
:102570007570745F656E7465725F636F6D6D616EAB
:10258000645B25645D202564200A000012E05FE0A2
:102590003BE03CE03DD03EE0FFF750FD4648007890
:1025A000032802D000F081FB52E000F017FE01206A
:1025B00028714DE02879012805D0FFF73FFD00F094
:1025C00001FC2C7144E03C494878002809D1EC70AA
:1025D0000C54401CC0B20328FAD36C75EC756C70B7
:1025E000AC75487801280AD1E87000200C54401CD2
:1025F000C0B20328FAD36C75EC756C70AC75FFF73C
:102600001DFD00F0D1F86C75DBE7442102E04121AB
:1026100000E05321E9754178002906D0417801296D
:1026200005D04178022904D005E0672102E04F215E
:1026300000E00B21A971807800280CD0AC756C7576
:10264000EC756C70AC757E60FFF7F8FC00F0ACF8D0
:10265000A97D1AA0F8E50120A875FFF7EFFCE87D39
:102660005328F5D1A87802F04BFDF1E7036A9B06E9
:1026700019D52021016243690B434361107A401C44
:102680001072107A032800D31472117A154613A021
:10269000FDF7D6FD687D012803D0687D022800D0B3
:1026A000E7E6AC75BAE6134A136A1362026A02627D
:1026B000086A0862F8BD0000350000200A20736532
:1026C0006C6563745F636F6D6D616E645F7375637A
:1026D00063657373203D202564200A000A0A636F36
:1026E000756E746572204020726967687420256475
:1026F000200A00008040005010B58369140E8C4001
:1027000023438361C3691202120A8A401343C361DF
:1027100010BDF0B5002301273C469C400C4208D078
:1027200005685C000326A640B5431646A64035431F
:1027300005605B1C082BEFD3F0BD000010B5002234
:102740003021F82001F0ECF8FF24C334204601F0DA
:1027500093FA00223021F82001F0E2F8204601F03F
:102760008BFAC0220021F82001F0DAF8204601F0AF
:1027700083FA60220021F82001F0D2F8204601F00F
:102780007BFA20220021F82001F0CAF8204601F04F
:1027900073FA10220021F82001F0C2F8014801F07C
:1027A0006BFA10BDD0DD060030B5FE4CE17819257E
:1027B0006D0100297ED100223021F82001F0B0F80F
:1027C000284601F059FA00228021F82001F0A8F8EB
:1027D000284601F051FA9022C021FA2001F0A0F819
:1027E000284601F049FA7022F021FA2001F098F809
:1027F000284601F041FA10228021F82001F090F8DB
:10280000284601F039FA50224021FA2001F088F8D8
:10281000284601F031FAC0226021FA2001F080F848
:10282000284601F029FA50226021FA2001F078F8B8
:10283000284601F021FA30226021FA2001F070F8D8
:10284000284601F019FA40227021FA2001F068F8B8
:10285000284601F011FA20227021FA2001F060F8D8
:10286000284601F009FAF0226021FA2001F058F818
:10287000284601F001FAE0226021FA2001F050F828
:10288000284601F0F9F990226021FA2001F048F879
:10289000284601F0F1F930226021FA2001F040F8D9
:1028A000284601F0E9F910229021F82001F038F8CB
:1028B000284600E001E101F0DFF950224021FA2032
:1028C00001F02EF8284601F0D7F980227021FA2075
:1028D00001F026F8284601F0CFF930226021FA20D5
:1028E00001F01EF8284601F0C7F980226021FA2085
:1028F00001F016F8284601F0BFF910226021FA20F5
:1029000001F00EF8284601F0B7F9E0226021FA2024
:1029100001F006F8284601F0AFF970226021FA2094
:1029200000F0FEFF284601F0A7F950226021FA20AE
:1029300000F0F6FF284601F09FF990228021F82050
:1029400000F0EEFF284601F097F960225021FA20AE
:1029500000F0E6FF284601F08FF990226021FA206E
:1029600000F0DEFF284601F087F920226021FA20DE
:1029700000F0D6FF284601F07FF920227021FA20CE
:1029800000F0CEFF284601F077F910226021FA20EE
:1029900000F0C6FF284601F06FF940227021FA20AE
:1029A00000F0BEFF284601F067F990226021FA206E
:1029B00000F0B6FF284601F05FF9E0226021FA201E
:1029C00000F0AEFF284601F057F970226021FA208E
:1029D00000F0A6FF284601F04FF960221021FA20EE
:1029E00000F09EFF284601F047F970225021FA209E
:1029F00000F096FF284601F03FF990226021FA206E
:102A000000F08EFF284601F037F920227021FA20CD
:102A100000F086FF284601F02FF950226021FA20AD
:102A200000F07EFF284601F027F990221146F82099
:102A300000F076FF284601F01FF9C0224021FA205D
:102A400000F06EFF284601F017F910226021FA20ED
:102A500000F066FF284601F00FF9E0226021FA201D
:102A600000F05EFF284601F007F970226021FA208D
:102A700000F056FF284601F0FFF850227021FA209E
:102A800000F04EFF284601F0F7F810226021FA20EE
:102A900000F046FF284601F0EFF870226021FA208E
:102AA00000F03EFF284601F0E7F850226021FA20AE
:102AB00000F036FF284601F0DFF8E078012873D1F6
:102AC00000223021F82000F02BFF284601F0D4F836
:102AD00000228021F82000F023FF284601F0CCF8E6
:102AE0009022C021FA2000F01BFF284601F0C4F814
:102AF0007022F021FA2000F013FF284601F0BCF804
:102B000030228021F82000F00BFF284601F0B4F8B5
:102B10003022D021FA2000F003FF284601F0ACF863
:102B20002022D021FA2000F0FBFE284601F0A4F874
:102B3000C022A021FA2000F0F3FE284601F09CF804
:102B4000F022E021FA2000F0EBFE284601F094F894
:102B5000D022A021FA2000F0E3FE284601F08CF8F4
:102B6000C0226021FA2000F0DBFE284601F084F844
:102B700030229021F82000F0D3FE284601F07CF8A6
:102B8000B022A021FA2000F0CBFE284601F074F814
:102B900000227021FA2000F0C3FE284601F06CF8F4
:102BA000802202E0100000207EE0B021FA2000F038
:102BB000B7FE284601F060F870224021FA2000F0AC
:102BC000AFFE284601F058F8D022A021FA2000F0EC
:102BD000A7FE284601F050F8C0226021FA2000F03C
:102BE0009FFE284601F048F8B0228021F82000F02E
:102BF00097FE284601F040F8F022A021FA2000F0CC
:102C00008FFE284601F038F820225021FA2000F0EB
:102C100087FE284601F030F8A0221146FA2000F085
:102C20007FFE284601F028F86022F021FA2000F00B
:102C300077FE284601F020F8D022A021FA2000F0EB
:102C40006FFE284601F018F8C0226021FA2000F03B
:102C500067FE284601F010F8B0229021F82000F01D
:102C60005FFE284601F008F8B022A021FA2000F00B
:102C700057FE284601F000F8A0226021FA2000F05B
:102C80004FFE284600F0F8FFA0221146FA2000F07F
:102C900047FE284600F0F0FFD022F021FA2000F095
:102CA0003FFE284600F0E8FF30BD10B5002230217D
:102CB000F82000F035FE19246401204600F0DCFF06
:102CC00000228021F82000F02BFE204600F0D4FFE7
:102CD0009022C021FA2000F023FE204600F0CCFF15
:102CE0007022F021FA2000F01BFE204600F0C4FF05
:102CF00010228021F82000F013FE204600F0BCFFD7
:102D000020223021FA2000F00BFE204600F0B4FF14
:102D1000E0222021FA2000F003FE204600F0ACFF64
:102D200050223021FA2000F0FBFD204600F0A4FFE5
:102D300060225021FA2000F0F3FD204600F09CFFB5
:102D400010229021F82000F0EBFD204600F094FFC7
:102D500050223021FA2000F0E3FD204600F08CFFE5
:102D600060225021FA2000F0DBFD204600F084FFB5
:102D700090228021F82000F0D3FD204600F07CFF57
:102D800010223021FA2000F0CBFD204600F074FF25
:102D900020223021FA2000F0C3FD204600F06CFF15
:102DA00060225021FA2000F0BBFD204600F064FFB5
:102DB00000222021FA2000F0B3FD204600F05CFF45
:102DC00010BD000030B5FE4CE17819256D010029D9
:102DD0007ED100223021F82000F0A2FD284600F02C
:102DE0004BFF00229021F82000F09AFD284600F0C9
:102DF00043FF30225021FA2000F092FD284600F0D7
:102E00003BFF40227021FA2000F08AFD284600F0A6
:102E100033FF10226021FA2000F082FD284600F0E6
:102E20002BFF20227021FA2000F07AFD284600F0C6
:102E300023FF40227021FA2000F072FD284600F0A6
:102E40001BFF00222021FA2000F06AFD284600F036
:102E500013FF40225021FA2000F062FD284600F0C6
:102E60000BFFF0226021FA2000F05AFD284600F006
:102E700003FF00222021FA2000F052FD284600F036
:102E8000FBFED0224021FA2000F04AFD284600F047
:102E9000F3FE50226021FA2000F042FD284600F0A7
:102EA000EBFE10226021FA2000F03AFD284600F0E7
:102EB000E3FE30227021FA2000F032FD284600F0B7
:102EC000DBFE50227021FA2000F02AFD284600E0A7
:102ED000A1E000F0D1FE20227021FA2000F020FDB8
:102EE000284600F0C9FE50226021FA2000F018FDAB
:102EF000284600F0C1FE80221146F82000F010FDA7
:102F0000284600F0B9FE9022C021FA2000F008FD0A
:102F1000284600F0B1FE90226021FA2000F000FD6A
:102F2000284600F0A9FE50224021FA2000F0F8FCCB
:102F3000284600F0A1FEE0226021FA2000F0F0FC1B
:102F4000284600F099FE40227021FA2000F0E8FCAB
:102F5000284600F091FE50226021FA2000F0E0FCAB
:102F6000284600F089FE20227021FA2000F0D8FCCB
:102F7000284600F081FEF0222021FA2000F0D0FC4B
:102F8000284600F079FEF0224021FA2000F0C8FC2B
:102F9000284600F071FE40227021FA2000F0C0FCAB
:102FA000284600F069FE80226021FA2000F0B8FC7B
:102FB000284600F061FE50226021FA2000F0B0FCAB
:102FC000284600F059FE20227021FA2000F0A8FCCB
:102FD000284600F051FE30227021FA2000F0A0FCBB
:102FE000284600F049FEF0228021F82000F098FCED
:102FF000284600F041FE9022C021FA2000F090FC0B
:10300000284600F039FEA0226021FA2000F088FC5A
:10301000284600F031FEE07801287DD100223021E1
:10302000F82000F07DFC284600F026FE20229021AA
:10303000F82000F075FC284600F01EFE7022A0214A
:10304000FA2000F06DFC284600F016FE9022E021E8
:10305000FA2000F065FC284600F00EFEC022A021F8
:10306000FA2000F05DFC284600F006FEC022E021B8
:10307000FA2000F055FC284600F0FEFD8022B02129
:10308000FA2000F04DFC284600F0F6FD50226021A9
:10309000FA2000F045FC284600F0EEFD2022D02169
:1030A000FA2000F03DFC284600F0E6FD0022C02199
:1030B000FA2000F035FC284600F0DEFD80221146A3
:1030C000F82000F02DFC284600F0D6FD9022C0210B
:1030D000FA2000F025FC284600F0CEFD9022602169
:1030E000FA2000F01DFC284600F0C6FD4022D02149
:1030F000FA2000F015FC284600F0BEFD2022C02179
:10310000FA2000F00DFC284600F0B6FD4022D02148
:10311000FA2000F005FC00E05EE0284600F0ACFD7F
:1031200000226021FA2000F0FBFB284600F0A4FDFD
:103130009022C021FA2000F0F3FB284600F09CFD0D
:10314000E022F021FA2000F0EBFB284600F094FD8D
:103150000022B021FA2000F0E3FB284600F08CFDAD
:103160001022F021FA2000F0DBFB284600F084FD5D
:103170000022B021FA2000F0D3FB284600F07CFDAD
:103180009022F021FA2000F0CBFB284600F074FDDD
:10319000A0221146FA2000F0C3FB284600F06CFD87
:1031A000D022E021FA2000F0BBFB284600F064FDAD
:1031B0009022C021FA2000F0B3FB284602E0000074
:1031C0001000002000F058FDA0226021FA2000F03D
:1031D000A7FB284600F050FD30BD000030B5A74CDD
:1031E000E17819256D0100297ED100223021F820D7
:1031F00000F096FB284600F03FFD00228021F820D9
:1032000000F08EFB284600F037FD9022C021FA2006
:1032100000F086FB284600F02FFD7022F021FA20F6
:1032200000F07EFB284600F027FD20228021F820B8
:1032300000F076FB284600F01FFD50224021FA20C6
:1032400000F06EFB284600F017FDE0226021FA2016
:1032500000F066FB284600F00FFD70226021FA2086
:1032600000F05EFB284600F007FDC0226021FA2036
:1032700000F056FB284600F0FFFC90226021FA2067
:1032800000F04EFB284600F0F7FC30227021FA20B7
:1032900000F046FB284600F0EFFC80226021FA2077
:1032A00000F03EFB284600F0E7FC00222021FA2037
:1032B00000F036FB284600F0DFFC20229021F820A9
:1032C00000F02EFB284600F0D7FC30224021FA20E7
:1032D00000F026FB284600F0CFFC80226021FA2077
:1032E00000F01EFB284600E031E000F0C5FC902213
:1032F0006021FA2000F014FB284600F0BDFCE0221B
:103300006021FA2000F00CFB284600F0B5FC5022AA
:103310006021FA2000F004FB284600F0ADFC3022CA
:103320007021FA2000F0FCFA284600F0A5FC50229B
:103330006021FA2000F0F4FA284600F09DFC0022FB
:103340002021FA2000F0ECFA284600F095FCE07805
:1033500001287DD100223021F82000F0E1FA284632
:1033600000F08AFC00228021F82000F0D9FA2846DB
:1033700000F082FC9022C021FA2000F0D1FA284609
:1033800000F07AFC7022F021FA2000F0C9FA2846F9
:1033900000F072FC20228021F82000F0C1FA2846BB
:1033A00000F06AFC4022C021FA2000F0B9FA284659
:1033B00000F062FC5022C021FA2000F0B1FA284649
:1033C00000F05AFC5022B021FA2000F0A9FA284659
:1033D00000F052FC2022D021FA2000F0A1FA284669
:1033E00000F04AFC1022A021FA2000F099FA2846A9
:1033F00000F042FC0022D021FA2000F091FA284689
:1034000000F03AFC20229021F82000F089FA2846AA
:1034100000F032FC1022B021FA2000F081FA284698
:1034200000F02AFC2022E021FA2000F079FA284658
:1034300000F022FC5022B021FA2000F071FA284658
:1034400000F01AFC2022D021FA2000F069FA00E0F6
:1034500012E0284600F010FC1022A021FA2000F013
:103460005FFA284600F008FC0022D021FA2000F084
:1034700057FA284600F000FC30BD00001000002084
:10348000064B0020064AD8711169064801401846CB
:10349000743000780843D8659060704710000020B1
:1034A00040400050F8FF000010B5064A1169074C73
:1034B000054B21401C467434205C0843D86590605D
:1034C00010BD00004040005010000020F8FF000038
:1034D00010B5144C20680421084320601020FEF72A
:1034E0009BFD07202061206AE101084320622068DB
:1034F0000921084320600C4820620D20FEF78CFD56
:103500001A2020610948A0600948606100F078F83D
:1035100005200007C16B074A1140C1630649C1631A
:1035200010BD000000020050174200003C000100E6
:1035300000200701C4C4FFFF3B08000006498A6958
:103540001202FCD408600A2804D188690002FCD465
:103550000D2008607047000000000540F0B5E02233
:103560003021F82000F0DCF919277F01384600F0FF
:1035700083FBFEF784FD0025294680310846F022B2
:1035800011400007020EF82000F0CAF9384600F09A
:1035900073FB00228021F82000F0C2F9384600F0C9
:1035A0006BFB1648002429010E18305D0109000745
:1035B000020E0901FA2000F0B3F9384600F05CFB76
:1035C000641CE4B2102CF0D300243019FF30FF301B
:1035D0000230007801090007020E0901FA2000F00C
:1035E0009FF9384600F048FB641CE4B2102CECD381
:1035F0006D1CEDB2202DBFD3F0BD000034010020C2
:10360000F8B51C4D286944071BA000680090296A82
:10361000640F2813014201D0002016E0080301D5F1
:10362000164800E016488A030FD40A04920F6B462E
:103630009B5CCA058904D20DC90E921C891C8008A6
:1036400059435043FCF71DFF80000E4E022CB06022
:1036500002D00D49A0000858A9690907090F491CA3
:10366000FCF70FFF094930604A108018FCF709FF8A
:103670007060F8BD00020050010202040080510198
:10368000001BB700000000206854000040420F00FB
:1036900070470021016041617047016801221206F4
:1036A00091430160704710B543691624A3430B434F
:1036B000134308210B43436110BD42695208520075
:1036C0000A434261016801221206114301607047FA
:1036D00010B588B00446202212496846FCF762FD06
:1036E000114912488C4202D14069000A0DE00E498E
:1036F00020318C4202D14069000B06E00C49406940
:103700008C4201D1000C00E0000D4007400F022860
:1037100004D080006946085808B010BD054800680C
:10372000FAE7000088540000000001400002005049
:103730000000114000000020F7B517460646FFF7CD
:10374000C7FF044600254008B84201D2022017E016
:10375000012189068C4202D30725E4080CE00121EF
:1037600049068C4202D30325A40805E0012109067D
:103770008C4201D30125044639462046FCF781FEE0
:1037800001992943316070606D1C684301462046F1
:10379000FCF777FEFEBD000070B5224CA068C007A4
:1037A000C00F26D00120A0601F4B5A6E521C5A66D3
:1037B000187E542804D1002A02D01C493D204860BC
:1037C000D87D442805D0D87D412802D0D87D532803
:1037D0000FD1DE7D1449FF20096E154D401A532E7E
:1037E00008D0A860DA7D532A02D0DA7D412A00D1C0
:1037F000186670BD802901D3E02600E02026AE6067
:10380000282AEFD9DA6A1D6BAA4202D2DA6A521C60
:10381000DA62DA6A044D9200B035AA58626000227A
:103820005A66DFE700000140100000203805002044
:103830000040005070B50F488169012918D181619D
:103840000D4A5168491C516003690C4CA16E164623
:103850008D001036AD19491CA1662B605168C9074F
:1038600002D00022102101E000221146FFF71BFFC9
:1038700070BD00002000014038050020100000202D
:10388000F0B526488478C6780779002C43D0032504
:1038900050228021F82000F043F81920400100F068
:1038A000EBF92007020E2901FA2000F039F819205F
:1038B000400100F0E1F93007020E3021FA2000F05B
:1038C0002FF81920400100F0D7F9E0222021FA203A
:1038D00000F026F81920400100F0CEF93807020E5A
:1038E0003021FA2000F01CF81920400100F0C4F942
:1038F0001022A021FA2000F013F81920400100F056
:10390000BBF9F022A021FA2000F00AF819204001AA
:1039100000F0B2F9F0BD0225BAE700003000002047
:1039200070B50E460146084C0120154660600846F9
:1039300000F00CF8304600F009F8284600F006F8D0
:103940000020606070BD00004042005070B5002251
:103950000D4B064614460125DC60002000F08CF972
:1039600030469040000601D59D6000E09C6000203C
:1039700000F082F9DD60002000F07EF9521CD2B226
:10398000082AE9D370BD000040420050F8B5040C8D
:103990008BB2264682B25E43104658430D0C370C5C
:1039A000360400218019164679416E43370C3604DF
:1039B0008019264679416E438919F8BD4900CA022B
:1039C000104300D004204A0D01D001221043054AC3
:1039D000490D914201D102210843012800D105205F
:1039E00070470000FF07000030380A2801D201208C
:1039F000704700207047000010B59E484178192498
:103A00006401002963D0417801297CD041780229E2
:103A10007AD04078032878D100228021F820FFF75F
:103A20007FFF204600F028F91022A021FA20FFF79E
:103A300077FF204600F020F90022D021FA20FFF77E
:103A40006FFF204600F018F900229021F820FFF7C0
:103A500067FF204600F010F91022A021FA20FFF79E
:103A60005FFF204600F008F90022D021FA20FFF77E
:103A700057FF204600F000F980221146F820FFF79A
:103A80004FFF204600F0F8F81022A021FA20FFF79F
:103A900047FF204600F0F0F80022D021FA20FFF77F
:103AA0003FFF204600F0E8F880229021F820FFF741
:103AB00037FF204600F0E0F89022C021FA20FFF7FF
:103AC0002FFF204600F0D8F87022F02188E0002275
:103AD0008021F820FFF724FF204600F0CDF8902247
:103AE000C021FA20FFF71CFF204600F0C5F8702225
:103AF000F021FA20FFF714FF204600F0BDF8002265
:103B00009021F82002E011E071E06FE0FFF708FF7C
:103B1000204600F0B1F81022A021FA20FFF700FFA4
:103B2000204600F0A9F80022D02129E000228021BF
:103B3000F820FFF7F5FE204600F09EF81022A021A5
:103B4000FA20FFF7EDFE204600F096F80022D02183
:103B5000FA20FFF7E5FE204600F08EF800229021C3
:103B6000F820FFF7DDFE204600F086F89022C02105
:103B7000FA20FFF7D5FE204600F07EF87022F021F3
:103B8000FA20FFF7CDFE204600F076F8802211469D
:103B9000F820FFF7C5FE204600F06EF81022A021A5
:103BA000FA20FFF7BDFE204600F066F80022D02183
:103BB000FA20FFF7B5FE204600F05EF88022902143
:103BC000F820FFF7ADFE204600F056F81022A021A5
:103BD000FA20FFF7A5FE204600F04EF80022D02183
:103BE000FA20FFF79DFE204600F046F810BD0022A7
:103BF0008021F820FFF794FE204600F03DF81022C7
:103C0000A021FA20FFF78CFE204600F035F80022B4
:103C1000D021FA20FFF784FE204600F02DF8002284
:103C20009021F820FFF77CFE204600F025F81022B6
:103C3000A021FA20FFF774FE204600F01DF80022B4
:103C4000D021FA20FFF76CFE204600F015F8802204
:103C50001146F820FFF764FE204600F00DF8902290
:103C6000C021FA20FFF75CFE204600F005F8702224
:103C7000F0219DE710000020002100E0491C814256
:103C8000FCDB7047FCB53C48447E867EC17E0191DA
:103C9000017F0091477F002C6BD00325902280216B
:103CA000F820FFF73DFE19204001FFF7E5FF200750
:103CB000020E2901FA20FFF733FE19204001FFF719
:103CC000DBFF3007020E3021FA20FFF729FE192012
:103CD0004001FFF7D1FF019830210007020EFA20C2
:103CE000FFF71EFE19204001FFF7C6FF00983021A4
:103CF0000007020EFA20FFF713FE19204001FFF71C
:103D0000BBFF3807020E3021FA20FFF709FE192009
:103D10004001FFF7B1FF00222021FA20FFF700FE4B
:103D200019204001FFF7A8FF2022A021FA20FFF769
:103D3000F7FD19204001FFF79FFFD022C021FA2094
:103D4000FFF7EEFD19204001FFF796FF2022A0218A
:103D5000FA20FFF7E5FD19204001FFF78DFF6022F3
:103D6000B021FA20FFF7DCFD19204001FFF784FFA6
:103D7000FCBD022592E7000010000020F0B5374896
:103D8000857FC47F20300678477890228021F820F4
:103D9000FFF7C6FD19204001FFF76EFF2807020E4E
:103DA0003021FA20FFF7BCFD19204001FFF764FF26
:103DB000E0222021FA20FFF7B3FD19204001FFF790
:103DC0005BFF2007020E3021FA20FFF7A9FD192022
:103DD0004001FFF751FF3007020E3021FA20FFF7B4
:103DE0009FFD19204001FFF747FF3807020E3021E1
:103DF000FA20FFF795FD19204001FFF73DFF002253
:103E00002021FA20FFF78CFD19204001FFF734FF35
:103E10002022A021FA20FFF783FD19204001FFF79F
:103E20002BFF4022A021FA20FFF77AFD1920400144
:103E3000FFF722FF2022A021FA20FFF771FD1920B1
:103E40004001FFF719FF7022C021FA20FFF768FD3B
:103E500019204001FFF710FFF0BD00001000002006
:103E6000FCB5192686497601002855D001287CD05A
:103E700002287BD14D7C887C0190CF7C087D00900E
:103E8000002D74D00324B0228021F820FFF748FDD4
:103E90003046FFF7F1FE2807020E2101FA20FFF756
:103EA0003FFD3046FFF7E8FE019830210007020E83
:103EB000FA20FFF735FD3046FFF7DEFE3807020E29
:103EC0003021FA20FFF72CFD3046FFF7D5FE009891
:103ED00030210007020EFA20FFF722FD3046FFF7DF
:103EE000CBFEA022C021FA20FFF71AFD3046FFF7D3
:103EF000C3FE5022F021FA20FFF712FD3046FFF7F3
:103F0000BBFEA022C021FA20FFF70AFD3046FFF7D2
:103F1000B3FE1022E021A7E04D7A887A0190CF7A93
:103F2000087B0090002D4CD00324B0228021F82083
:103F3000FFF7F6FC3046FFF79FFE2807020E21012F
:103F4000FA20FFF7EDFC3046FFF796FE019830218E
:103F50000007020EFA20FFF7E3FC3046FFF78CFE65
:103F60003807020E3021FA2002E02CE082E084E0E3
:103F7000FFF7D6FC3046FFF77FFE009830210007A0
:103F8000020EFA20FFF7CCFC3046FFF775FEA022A8
:103F9000C021FA20FFF7C4FC3046FFF76DFE602217
:103FA000D021FA20FFF7BCFC3046FFF765FEB022B7
:103FB000C021FA20FFF7B4FC3046FFF75DFE302247
:103FC00051E00224B1E74D7B887B0190C87B0090D3
:103FD0000F7C002D4FD00324B0228021F820FFF762
:103FE0009FFC3046FFF748FE2807020E2101FA2009
:103FF000FFF796FC3046FFF73FFE0198302100079F
:10400000020EFA20FFF78CFC3046FFF735FE0098D1
:1040100030210007020EFA20FFF782FC3046FFF73E
:104020002BFE3807020E3021FA20FFF779FC3046CC
:10403000FFF722FEB022C021FA20FFF771FC3046C4
:10404000FFF71AFE70226021FA20FFF769FC304664
:10405000FFF712FEB022C021FA20FFF761FC3046C4
:10406000FFF70AFE80224021FA20FFF759FC304674
:10407000FFF702FEFCBD0224AEE7022403E70000C6
:1040800010000020F0B50C460546FDF7D7FFDF4FC6
:10409000F87819267601002803D1412D02D0442D4D
:1040A0007ED080E000228021F820FFF739FC3046E6
:1040B000FFF7E2FD50224021FA20FFF731FC3046A5
:1040C000FFF7DAFD80227021FA20FFF729FC304645
:1040D000FFF7D2FD30226021FA20FFF721FC3046A5
:1040E000FFF7CAFD80226021FA20FFF719FC304655
:1040F000FFF7C2FD10226021FA20FFF711FC3046C5
:10410000FFF7BAFDE0226021FA20FFF709FC3046F4
:10411000FFF7B2FD70226021FA20FFF701FC304664
:10412000FFF7AAFD5022FCE04F2C7DD00B2C10D0C5
:1041300039E0FFF7F5FB3046FFF79EFD50223021B6
:10414000FA20FFF7EDFB3046FFF796FD6022502185
:1041500021E060228021F820FFF7E2FB3046FFF7E4
:104160008BFD10223021FA20FFF7DAFB3046FFF7F3
:1041700083FD20223021FA20FFF7D2FB3046FFF7E3
:104180007BFD60225021FA20FFF7CAFB3046FFF783
:1041900073FD00222021FA20FFF7C2FB304600E029
:1041A0006BE0FFF769FDF87801287DD1412D7CD0C7
:1041B000442D79D120228021F820FFF7B1FB304631
:1041C000FFF75AFD3022D021FA20FFF7A9FB304635
:1041D000FFF752FD2022D021FA20FFF7A1FB304645
:1041E000FFF74AFDC022A021FA20FFF799FB3046D5
:1041F000FFF742FDF022E021FA20FFF791FB304665
:10420000FFF73AFDD022A021FA20FFF789FB3046C4
:10421000FFF732FDC0226021FA20FFF781FB304614
:10422000FFF72AFD672C00E09CE07DD04F2C7CD06E
:104230000B2C39D160228021F820FFF771FB30462A
:10424000FFF71AFD10223021FA20FFF769FB3046F4
:10425000FFF712FD20223021FA20FFF761FB3046E4
:10426000FFF70AFD60225021FA20FFF759FB304684
:10427000FFF702FD00222021C1E000228021F8206A
:10428000FFF74EFB3046FFF7F7FC50224021FA20A3
:10429000FFF746FB3046FFF7EFFCC0226021FA2013
:1042A000FFF73EFB304601E0AFE05FE0FFF7E4FCE4
:1042B00050226021FA20FFF733FB3046FFF7DCFC89
:1042C00030226021FA20FFF72BFB3046FFF7D4FCA9
:1042D00040227021FA20FFF723FB3046FFF7CCFC89
:1042E00020227021FA20FFF71BFB3046FFF7C4FCA9
:1042F000F0226021FA20FFF713FB3046FFF7BCFCE9
:10430000E0226021FA20FFF70BFB3046FFF7B4FCF8
:1043100090226021FA20FFF703FB3046FFF7ACFC48
:1043200030226021FA2001E043E056E0FFF7F8FA7E
:104330003046FFF7A1FC672C00D0F5E66022802113
:10434000F820FFF7EDFA3046FFF796FC20223021E7
:10435000FA20FFF7E5FA3046FFF78EFCE022202135
:10436000FA20E6E660228021F820E2E62022802181
:10437000F820FFF7D5FA3046FFF77EFCB022A021E7
:10438000FA20FFF7CDFA3046FFF776FC00227021C5
:10439000FA20FFF7C5FA3046FFF76EFC8022B02105
:1043A000FA20FFF7BDFA3046FFF766FC7022402185
:1043B00022E760228021F820FFF7B2FA3046FFF7AB
:1043C0005BFC20223021FA20FFF7AAFA3046FFF7E3
:1043D00053FCE0222021FA2002E060228021F82014
:1043E000FFF79EFA3046FFF747FC50223021FA20B3
:1043F000FFF796FA3046FFF73FFC60225021FA2083
:10440000FFF78EFA3046FFF737FCF0BD10000020B2
:104410000020C043704700B50346FFF78FF81846E9
:1044200000BD0000024801214163016370470000A4
:104430000042005088B0FF4F012211463846FEF777
:1044400068F9012202213846FEF763F901220421AE
:104450003846FEF75EF9012208213846FEF759F981
:10446000012210213846FEF754F901222021384656
:10447000FEF74FF9012240213846FEF74AF90122A2
:1044800080213846FEF745F9EA4C012240341146B6
:104490002046FEF73EF9012202212046FEF739F9B7
:1044A000012204212046FEF734F90122082120468A
:1044B000FEF72FF9012210212046FEF72AF90122EA
:1044C00020212046FEF725F9012240212046FEF753
:1044D00020F9012280212046FEF71BF9D64D00224B
:1044E00002212846FEF715F9D3480022082140385A
:1044F000FEF70FF9CF4C0122803402212046FEF74F
:1045000008F9012204212046FEF703F901220821BF
:104510002046FEF7FEF8012210212046FEF7F9F8AA
:10452000012220212046FEF7F4F8012240212046F6
:10453000FEF7EFF8C148002444618461BE4822467A
:1045400010214038FEF7E5F80126BB483604324614
:1045500004214038FEF7D0F8B74800222021403827
:10456000FEF7D7F8B448324605214038FEF7C4F8C4
:10457000002201212846FEF7CCF8324600212846C9
:10458000FEF7BAF8002204212846FEF7C2F83246A8
:1045900002212846FEF7B0F8A748002280214038C3
:1045A000FEF7B7F8A448324607214038FEF7A4F8D2
:1045B000FF20A34E9130B064A248F064FEF7BEF82D
:1045C000FEF7CCFFA048FFF757FBFDF758FDFEF7BD
:1045D000EBF8592116229D4D882302E029602A60BC
:1045E0002B6028680128F9D1FEF772FF2C607471E6
:1045F00097A0FBF725FEA448202101608F48403892
:10460000C462FFF70FFFFEF73BFF0025346500F0A3
:1046100037FD316D6D1C40183065102DF7DB884972
:104620000020C862CA6A93000A46B032D358974A3B
:1046300053600523DB06136013681B0A1B0213601B
:104640009315914A4866136008667A4988607949EB
:10465000403188607A4C20348D48FFF70DFB784E4E
:10466000B16C8C4F3846FBF70CFF3067F16C054698
:104670003846FBF706FF32467C32F0661560506024
:10468000B07D0128E8D1B079002575663066F07DEF
:10469000532825D00220F062F06A81006848B030CB
:1046A00041587A484160016882031143016001204A
:1046B0006249F0714039C862774F3846FFF7DCFA3B
:1046C0003846FFF7D9FA3846FFF7D6FAF07D532877
:1046D00008D0F07D44287DD0F07D4128FBD0FCE35C
:1046E000F562D9E7F17D6DA0FBF7AAFDB17970A065
:1046F000FBF7A6FDF06A316B8842FBD3F06A316BA1
:10470000884206D1706BF062B06B306349488021FB
:1047100081605E4801688203914301605E4A1046F1
:10472000FFF7AAFA1046FFF7A7FA1046FFF7A4FA18
:104730001046FFF7A1FA1046FFF79EFA002082000C
:104740006249401C8D507828F9DB3D4854210176A0
:104750004E4F5F48786038680907084338604B4E11
:10476000032120360122C9063046FEF7E5FF386AEC
:10477000000A00020A30386256487862002130464A
:10478000FEF79BFF70694021084370613046FEF7D9
:1047900084FF002210213046FEF785FF716920203A
:1047A0000143716149481038456025498D6631687B
:1047B0007206114331600126334952150A601F4FBA
:1047C000403F7E637D637D6341683C29FCD92F4A6D
:1047D000106800E0D0E29103884310602B4820303D
:1047E00002688A430260FEF754FF7E637D637E6346
:1047F000134E0021052033467C3375651A685F68C7
:104800009446324A8300D258624505D2BA4203D94F
:10481000736DD218491C7265401C7828F1DB0029A1
:1048200003DD706DFBF72DFE7065FFF7FBFD0027C4
:10483000034E51E000400050004100504042005003
:104840001000002070170000002D31010001005001
:104850002B2D2D2D2D2D2D2D2D2D2D2D2D2D2D2D8A
:104860002D2D2D2D2D2D2D2D2D2D2D2D2D2D2D2D78
:104870002D2D2D2D2D2D2D2D2D2D2D2D2D2D2D2D68
:104880002D2D2B0A0A00000000E100E0000001408D
:10489000005A6202DC5B450050C300000A207365C9
:1048A0006C6563745F747970653D2563200A000050
:1048B0000A206775634F7574707574566F6C7461F8
:1048C00067655065616B3D2578200A00480500202A
:1048D000804F1200FFFF0000F079FEF7E5FDFE4A71
:1048E0001046FFF7C9F91046FFF7C6F9FB489921B2
:1048F000B56581601046FFF7BFF9002600F0C0FBE8
:10490000F749761C8A6D80188865102EF6DB0A46FA
:10491000906DF44900099065884205D3D17900294A
:1049200002D0491ED1710127EF49884205D8D079BC
:10493000052802D2401CD07179E7002FFCD1E84E47
:10494000EA48716DFBF79DFDFCF7F2FC07467064C9
:104950007F203946C005FCF7F7FBE54900F0B0FCC5
:10496000F063B06AFCF7C4FB019100903946084639
:1049700000F0A6FCFCF7BCFBDE4ADF4BFCF78CFA30
:10498000019B009AFCF788FAFBF72CFE3064B06DAF
:10499000FCF7CEFCF1793246890098325158FCF789
:1049A000D3FBFCF781FCB065FCF7C2FCD349FCF7F4
:1049B000CBFBD34900F084FCFCF79AFBD14AD24BE5
:1049C000FBF7C7FF37468037386179613A697B6901
:1049D000CEA0FBF735FC706CD3490090FCF7B4FB1C
:1049E000FCF762FC7072707A7D21C9004843FCF7C5
:1049F0009FFC009900F0BCFCCC49FCF7A5FBFCF740
:104A000053FCB072B07A64214843FCF791FC0190EA
:104A1000707A7D21C9004843FCF78AFC009900F0B8
:104A2000A7FC019900F0B0FCC149FCF78DFBFCF735
:104A30003BFCF072F07A0A214843FCF779FC0290C3
:104A4000B07A64214843FCF773FC0190707A7D21B1
:104A5000C9004843FCF76CFC009900F089FC0199FF
:104A600000F092FC029900F08FFCFCF71DFC307303
:104A7000306CAD490090FCF767FBFCF715FC7073D8
:104A8000707B7D21C9004843FCF752FC009900F07F
:104A90006FFCA649FCF758FBFCF706FCB073B07B33
:104AA00064214843FCF744FC0190707B7D21C900E0
:104AB0004843FCF73DFC009900F05AFC019900F0D6
:104AC00063FC9B49FCF740FBFCF7EEFBF073F07BCB
:104AD0000A214843FCF72CFC0290B07B6421484338
:104AE000FCF726FC0190707B7D21C9004843FCF750
:104AF0001FFC009900F03CFC019900F045FC029974
:104B000000F042FCFCF7D0FB3074F06B864900905B
:104B1000FCF71AFBFCF7C8FB7074707C7D21C900A0
:104B20004843FCF705FC009900F022FC7F49FCF7A4
:104B30000BFBFCF7B9FBB074B07C64214843FCF775
:104B4000F7FB0190707C7D21C9004843FCF7F0FB26
:104B5000009900F00DFC019900F016FC7449FCF777
:104B6000F3FAFCF7A1FBF074F07C0A214843FCF750
:104B7000DFFB0290B07C64214843FCF7D9FB019035
:104B8000707C7D21C9004843FCF7D2FB009900F0FE
:104B9000EFFB019900F0F8FB029900F0F5FBFCF740
:104BA00083FB3075307A0028307A00D0307AFFF7F6
:104BB00057F9604A604B38697969FCF76DF93A69D1
:104BC0007B69FCF769F93A697B69FCF765F93A6931
:104BD0007B69FCF761F93A697B69FCF75DF907913C
:104BE0000690564A564B38697969FCF755F93A6987
:104BF0007B69FCF751F93A697B69FCF74DF93A6931
:104C00007B69FCF749F9059104904E4A4E4B38698F
:104C10007969FCF741F93A697B69FCF73DF93A6932
:104C20007B69FCF739F903910290484A484B38698F
:104C30007969FCF731F93A697B69FCF72DF9019143
:104C40000090444A444B38697969FCF725F9002201
:104C5000424BFBF794FE019B009AFBF77AFE039B05
:104C6000029AFBF781FE059B049AFBF772FE079BF5
:104C7000069AFBF779FEB860F960394BB8680022F4
:104C8000F968FBF793FEFCF7B7F8A070A0780A214B
:104C90004843FCF7FEF8BA68FB68FBF770FEFCF7C8
:104CA000ABF8E070E078FCF7F4F801910090A078A0
:104CB0000A214843FCF7EDF8BA68FB68FBF75FFE92
:104CC000019B009AFBF750FE264A274BFBF76EFE2E
:104CD000FCF792F8207149E050C3000000400050FA
:104CE0001000002090E2000010270000DC5B45006F
:104CF00000247449FCA9F1D24D62503F00FF7F4768
:104D00000000A040EC51B81E85EBB13F0A2054656D
:104D10006D706572747572655F76616C7565203D46
:104D2000202566200A00000000007A440000C842E6
:104D3000000020412EFF21FDF615214039B4C87630
:104D4000BEDF4B400AD7A3703DE26240B81E85EB40
:104D500051D06A40A4703D0AD783684000005E408D
:104D6000000024409A9999999999B93FFEF788FDD6
:104D700000213961796145E1F17DA848FBF760FACE
:104D8000A648B1791430FBF75BFAFFF74BFB002024
:104D90000090F079FEF788FBA14A1046FEF76CFF01
:104DA0001046FEF769FF0027356500F069F9316D9F
:104DB0007F1C40183065102FF7DB00093065009824
:104DC0000028E4D1306D81004018FCF7B1FAF17988
:104DD000944A89005158FCF7B7F99349FCF7B4F9A4
:104DE0007064FCF785F902460B4690A0FBF728FAA1
:104DF000B179F07DFFF746F9F07D442803D0F07DCE
:104E000041286BD0FEE0706C8D490090FCF79CF956
:104E1000FCF74AFA7076707E0A214843FCF788FA5C
:104E2000009900F0A5FAFCF73FFAB076B07EFCF7E7
:104E30007FFA0190707E0A214843FCF779FA0099C5
:104E400000F096FA019900F09FFAFCF751F97D4ABB
:104E50007D4BFBF7ABFDFBF7CFFFF076F07EFCF769
:104E600018F8784A784BFCF717F803910290B07E57
:104E7000FCF75EFA0190707E0A214843FCF758FA6D
:104E8000009900F075FA019900F07EFAFCF730F90C
:104E9000039B029AFBF768FD6C4A6D4BFBF786FD9E
:104EA000FBF7AAFF3077307FFBF7F3FF674A684BC9
:104EB000FBF7F2FF05910490F07EFBF7EAFF614AF1
:104EC000614BFBF7E9FF03910290B07EFCF730FAEB
:104ED0000190707E0A21484301E094E01BE0FCF75A
:104EE00027FA009900F044FA019900F04DFAFCF716
:104EF000FFF8039B029AFBF737FD059B049AFBF72B
:104F000033FD544A544BFBF751FDFBF775FF7077A7
:104F1000FEF7B8FE76E0B0794F2804D0672808D0B5
:104F20000B280CD019E0706CFCF7E2F800224B4B18
:104F30000AE0706CFCF7DCF80022494B04E0706C6E
:104F4000FCF7D6F80022474BFBF730FD0022464B1A
:104F5000FBF7A2FFFBF746FB70644448716C3746D1
:104F6000814200DB7864786C41490090FCF7ECF8F2
:104F7000FCF79AF9B877B87F7D21C9004843FCF760
:104F8000D7F9009900F0F4F93A49FCF7DDF8FCF79D
:104F90008BF9F877F87F64214843FCF7C9F9019051
:104FA000B87F7D21C9004843FCF7C2F9009900F0A1
:104FB000DFF9019900F0E8F92149FCF7C5F8FCF7A1
:104FC00073F9207020780A214843FCF7B1F9029068
:104FD000F87F64214843FCF7ABF90190B87F7D214D
:104FE000C9004843FCF7A4F9009900F0C1F9019900
:104FF00000F0CAF9029900F0C7F9FCF755F96070A2
:10500000FEF7BCFE7564FEF73BFA1B48C5621B4801
:10501000026881038A430260FFF71EFB9C48000080
:1050200050C30000A800002000FF7F470A207365DE
:105030006E6F725F76616C75653D202566200A0093
:10504000000020419A9999999999B93F7B14AE47EC
:10505000E17A843FFCA9F1D24D62503F0000144038
:1050600000000440000028408087C340003C1C46EC
:1050700000007A440000C842004200500000014095
:10508000F0B500221D4C15466263134601262563C8
:105090000F20FEF7F1FD26630D20FEF7EDFD5B1CF2
:1050A000052BF4DB154F0023803725630F20FEF717
:1050B000E3FD7868002800D0521C266352000D20C2
:1050C000FEF7DAFD5B1C102BEFDB666325632563BF
:1050D000266326632563256326632663256325638C
:1050E000266326632563256326632663256325637C
:1050F0002663266366631046F0BD00000042005040
:1051000010B51924640100281BD001282CD00228D6
:105110003CD003284CD0042863D0052860D110224D
:105120009021F820FEF7FCFB2046FEF7A5FDA0220B
:10513000C021FA20FEF7F4FB2046FEF79DFD402239
:1051400047E010229021F820FEF7EAFB2046FEF708
:1051500093FDA022C021FA20FEF7E2FB2046FEF7D5
:105160008BFDF022C02135E010229021F820FEF7BF
:10517000D7FB2046FEF780FDA022C021FA20FEF7D3
:10518000CFFB2046FEF778FD002222E0102290217E
:10519000F820FEF7C5FB2046FEF76EFDA022C021D9
:1051A000FA20FEF7BDFB2046FEF766FD102210E058
:1051B00010229021F820FEF7B3FB2046FEF75CFD9D
:1051C000A022C021FA20FEF7ABFB2046FEF754FDDB
:1051D0002022D021FA20FEF7A3FB2046FEF74CFD4B
:1051E00010BD10229021F820FEF79AFB2046FEF712
:1051F00043FDA022C021FA20FEF792FB2046FEF7D5
:105200003BFD3022E5E7000010B500290AD0087800
:10521000002807D005487844FCF7B2FE002801D0EA
:10522000002010BD0248784410BD00002E0400008C
:105230002604000070B501250400ED074C4020D481
:10524000441A01D2001B0919C60D4B00F2B2FF2A05
:1052500029D01B0E2CD000020C02D31A2C43DC40A8
:105260002843051910D2280A02D3401C6D0611D01C
:10527000761EF6058019FF2A00DA70BDC00DC00544
:1052800070BD694000F086F801200543C541521CFD
:10529000761CE8E764089C40C90161408900E7D1B9
:1052A0000124A043E4E71B0E440200D0034870BD74
:1052B000002AFCD1C00FC00770BD00BF0000C07F36
:1052C00070B5420064414B005C41120E39D01B0E98
:1052D00038D0FF2A3CD0FF2B3AD040024902400A86
:1052E000490A060045184E43000A090AD2184843E5
:1052F000ED017F3A0104731A4019190C4318990FF4
:1053000004D001215B0849075B1A521CD80904D359
:10531000401CF50301D19D0607D0FF2A08D2D50510
:1053200006D0E4072043401970BD0125A843F4E7E7
:10533000002A01DCE00770BD2402FF202043C005E5
:1053400070BD1B0EFF2A03D0FF2B01D0E00770BDFC
:10535000FF2645003606B54206D84D00B54203D8B3
:10536000D218FF2A00D0E7E7004870BD0000C07FD8
:1053700070B50125ED07684004004C4002D5694036
:1053800000F008F8FFF75CFF70B501250400ED0799
:105390004C4022D4441A02D26C40001B0919C60D9D
:1053A0004B00F2B2FF2A4BD01B0E50D000020C0271
:1053B000D31A2C43DC40A843051B05D5AD0019D3F7
:1053C0006D08761E521E37D0F605280A01D28019C4
:1053D00070BD70416D0603D070BD6940FFF730FFAE
:1053E0009C4009026140490001D0401E70BD01246B
:1053F000A04370BD6D081DD001202B0C01D12D04E0
:1054000010302B0E01D12D0208302B0F01D12D01B0
:10541000001DAB0F01D1AD00801CEB0F01D16D0061
:10542000401C6D00361A121A680AF5054019012A47
:1054300002DB70BD002070BDC036300AC00770BDF1
:105440001B0E440201D1FF2B00D1024870BD002A7F
:10545000F0D070BD0000C07F03B402487844844699
:1054600003BC604727C1FFFF001BB700000000001E
:1054700080F0FA0210270000000000000000000089
:105480000000000000805101001BB7000000000078
:1054900000000000000000000000000010270000D5
:1054A000000000000080510130313233343536378E
:1054B0003839414243444546403058003031323358
:1054C0003435363738396162636465664030780058
:1054D00080807F7E7D7C7B7A797877767675747331
:1054E000727171706F6E6E6D6C6C6B6A6A696868F0
:1054F000676666656464636362616160605F5F5E86
:105500005E5D5D5C5C5B5B5A5A59595858575756FB
:105510005655555554545353525252515150505060
:105520004F4F4F4E4E4D4D4D4C4C4C4B4B4B4A4AB2
:105530004A494949484848474747474646464545F6
:10554000454444444443434343424242424141412F
:105550008182838485868788898B8C8D8E8F9192BA
:1055600093959697999A9C9D9FA0A2A3A5A7A8AA58
:10557000ACAEB0B2B3B5B7B9BCBEC0C2C5C7C9CC7A
:10558000CED1D4D7D9DCDFE2E6E9ECF0F3F7FAFECE
:1055900002400000000000A00000000005400000E4
:1055A000000000C8000000000C4000000000409C0B
:1055B00000000000194000000020BCBE00000000F8
:1055C00034400000BFC91B8E00000004B54000003D
:1055D000504BCFD06607E2CF010000006C410000C5
:1055E0003E8251AADFEEA73401000000D94200003C
:1055F000DCB5A0E23A301F97FFFFFFFFB445000083
:10560000FD25A0C8E9A3C14FFFFFFFFFFF3F00003A
:105610000000008000000000FF3F0000000000804C
:105620000000000060560000000000203805000067
:1056300004010000985B00003805002050040000C1
:10564000200100001C00000043000000F8FFFFFFE5
:105650000C0000000E0000000F0000002E000000F3
:1056600080F0FA023200000080F0FA020000000030
:10567000000000000000000000000000000000002A
:10568000000000000000000000000000000000001A
:1056900000000000000000000000803F000000004B
:1056A00004000000000000001C00000000000000DA
:1056B00000000000000000000000000000000000EA
:1056C00000000000000000000000000000000000DA
:1056D00000000000000000000000000000000000CA
:1056E00000000000020E030F000C0000000000008C
:1056F00000000000000000000000000000000000AA
:1057000000000000000000004CA6AA3E0000803F00
:10571000666666402FDD2C413D0A04427B14C6427A
:10572000983A0000102700004C1D00007017000080
:1057300088130000BD100000A60E0000050D00003B
:10574000B80B0000A70A0000C4090000030900000C
:105750005E080000D007000053070000E4060000C8
:10576000820600002A060000DC0500009405000007
:105770005305000018050000E2040000B00400001A
:1057800081040000570400002F0400000A040000F8
:10579000E80300000000000000000000000000001E
:1057A00000000000000000000000000000000000F9
:1057B00000000000000000000000000000000000E9
:1057C00000000000000000000000000000000000D9
:1057D00000000000000000000000000000000000C9
:1057E00000000000000000000000000000000000B9
:1057F00000000000000000000000000000000000A9
:105800000000000000000000000000000000000098
:105810000000000000000000000000000000000088
:105820000000000000000000000000000000000078
:105830000000000000000000000000000000000068
:105840000000000000000000000000000000000058
:105850000000000000000000000000000000000048
:105860000000000000000003F00000000000000045
:10587000000000000000000FFE000000000000001B
:10588000000000000000001FFF00000000000000FA
:10589000000000000000007FFF800000000000000A
:1058A00000000000000000FFFF800000000000007A
:1058B00000000000000001C07FC0000000000000E8
:1058C00000000000000003001FC0000000000000F6
:1058D00000000000000004000FE0000000000000D5
:1058E000000000000000180007E0000000000000B9
:1058F000000000000000380007E000000000000089
:10590000000000000000200003E000000000000094
:10591000000000000000000003C0FE0000000000C6
:10592000000000000000000003C1FF800000100024
:1059300000000000000001FC03C300C003807000F1
:10594000007F8000000003FC0386007FCFE1F000B1
:10595000007F8000000007F8038C003FFFF3D000B9
:105960000071800000000FF0030C3C60701F10F00D
:105970001F71F000000019E003183F80200C11FC9B
:105980003FF1F8000000105FFFF87F8E21041F0632
:1059900070F18C000000303FFFF8400003841E03CC
:1059A000807106000000707FFC0040000380000151
:1059B00084300600000071FFFFF83C0FE38C187183
:1059C0000E3086000000F3FFFFFC1804210C1801C4
:1059D0000FF1C600003FFFFFF00C0000201C180173
:1059E0000FF1C6000000F80000060060F87C187F88
:1059F0008FF1C6000000FC00400383FFDFF60000CB
:105A00008401C7E00000FE018001FF800306000062
:105A10000001C7E00000FF0300007C000007000059
:105A2000000000000000FFFE000000000003FFFF78
:105A3000FFFFFFE000007FFC000000000000FFFF10
:105A4000FFFFFFE000003FF000000000000000004A
:105A50000000000000001FE0000000000000000047
:105A60000000000000000F800000000000000000A7
:105A70000000000000000000000000000000000026
:105A80000000000000000000000000000000000016
:105A90000000000000000000000000000000000006
:105AA00000000000000000000000000000000000F6
:105AB00000000000000000000000000000000000E6
:105AC00000000000000000000000000000000000D6
:105AD00000000000000000000000000000000000C6
